{
  "contractName": "CertificateNFT",
  "abi": [
    {
      "inputs": [
        {
          "internalType": "address",
          "name": "defaultAdmin",
          "type": "address"
        },
        {
          "internalType": "address",
          "name": "minter",
          "type": "address"
        }
      ],
      "stateMutability": "nonpayable",
      "type": "constructor"
    },
    {
      "inputs": [],
      "name": "AccessControlBadConfirmation",
      "type": "error"
    },
    {
      "inputs": [
        {
          "internalType": "address",
          "name": "account",
          "type": "address"
        },
        {
          "internalType": "bytes32",
          "name": "neededRole",
          "type": "bytes32"
        }
      ],
      "name": "AccessControlUnauthorizedAccount",
      "type": "error"
    },
    {
      "inputs": [],
      "name": "ERC721EnumerableForbiddenBatchMint",
      "type": "error"
    },
    {
      "inputs": [
        {
          "internalType": "address",
          "name": "sender",
          "type": "address"
        },
        {
          "internalType": "uint256",
          "name": "tokenId",
          "type": "uint256"
        },
        {
          "internalType": "address",
          "name": "owner",
          "type": "address"
        }
      ],
      "name": "ERC721IncorrectOwner",
      "type": "error"
    },
    {
      "inputs": [
        {
          "internalType": "address",
          "name": "operator",
          "type": "address"
        },
        {
          "internalType": "uint256",
          "name": "tokenId",
          "type": "uint256"
        }
      ],
      "name": "ERC721InsufficientApproval",
      "type": "error"
    },
    {
      "inputs": [
        {
          "internalType": "address",
          "name": "approver",
          "type": "address"
        }
      ],
      "name": "ERC721InvalidApprover",
      "type": "error"
    },
    {
      "inputs": [
        {
          "internalType": "address",
          "name": "operator",
          "type": "address"
        }
      ],
      "name": "ERC721InvalidOperator",
      "type": "error"
    },
    {
      "inputs": [
        {
          "internalType": "address",
          "name": "owner",
          "type": "address"
        }
      ],
      "name": "ERC721InvalidOwner",
      "type": "error"
    },
    {
      "inputs": [
        {
          "internalType": "address",
          "name": "receiver",
          "type": "address"
        }
      ],
      "name": "ERC721InvalidReceiver",
      "type": "error"
    },
    {
      "inputs": [
        {
          "internalType": "address",
          "name": "sender",
          "type": "address"
        }
      ],
      "name": "ERC721InvalidSender",
      "type": "error"
    },
    {
      "inputs": [
        {
          "internalType": "uint256",
          "name": "tokenId",
          "type": "uint256"
        }
      ],
      "name": "ERC721NonexistentToken",
      "type": "error"
    },
    {
      "inputs": [
        {
          "internalType": "address",
          "name": "owner",
          "type": "address"
        },
        {
          "internalType": "uint256",
          "name": "index",
          "type": "uint256"
        }
      ],
      "name": "ERC721OutOfBoundsIndex",
      "type": "error"
    },
    {
      "anonymous": false,
      "inputs": [
        {
          "indexed": true,
          "internalType": "address",
          "name": "owner",
          "type": "address"
        },
        {
          "indexed": true,
          "internalType": "address",
          "name": "approved",
          "type": "address"
        },
        {
          "indexed": true,
          "internalType": "uint256",
          "name": "tokenId",
          "type": "uint256"
        }
      ],
      "name": "Approval",
      "type": "event"
    },
    {
      "anonymous": false,
      "inputs": [
        {
          "indexed": true,
          "internalType": "address",
          "name": "owner",
          "type": "address"
        },
        {
          "indexed": true,
          "internalType": "address",
          "name": "operator",
          "type": "address"
        },
        {
          "indexed": false,
          "internalType": "bool",
          "name": "approved",
          "type": "bool"
        }
      ],
      "name": "ApprovalForAll",
      "type": "event"
    },
    {
      "anonymous": false,
      "inputs": [
        {
          "indexed": false,
          "internalType": "uint256",
          "name": "_fromTokenId",
          "type": "uint256"
        },
        {
          "indexed": false,
          "internalType": "uint256",
          "name": "_toTokenId",
          "type": "uint256"
        }
      ],
      "name": "BatchMetadataUpdate",
      "type": "event"
    },
    {
      "anonymous": false,
      "inputs": [
        {
          "indexed": false,
          "internalType": "uint256",
          "name": "_tokenId",
          "type": "uint256"
        }
      ],
      "name": "MetadataUpdate",
      "type": "event"
    },
    {
      "anonymous": false,
      "inputs": [
        {
          "indexed": true,
          "internalType": "bytes32",
          "name": "role",
          "type": "bytes32"
        },
        {
          "indexed": true,
          "internalType": "bytes32",
          "name": "previousAdminRole",
          "type": "bytes32"
        },
        {
          "indexed": true,
          "internalType": "bytes32",
          "name": "newAdminRole",
          "type": "bytes32"
        }
      ],
      "name": "RoleAdminChanged",
      "type": "event"
    },
    {
      "anonymous": false,
      "inputs": [
        {
          "indexed": true,
          "internalType": "bytes32",
          "name": "role",
          "type": "bytes32"
        },
        {
          "indexed": true,
          "internalType": "address",
          "name": "account",
          "type": "address"
        },
        {
          "indexed": true,
          "internalType": "address",
          "name": "sender",
          "type": "address"
        }
      ],
      "name": "RoleGranted",
      "type": "event"
    },
    {
      "anonymous": false,
      "inputs": [
        {
          "indexed": true,
          "internalType": "bytes32",
          "name": "role",
          "type": "bytes32"
        },
        {
          "indexed": true,
          "internalType": "address",
          "name": "account",
          "type": "address"
        },
        {
          "indexed": true,
          "internalType": "address",
          "name": "sender",
          "type": "address"
        }
      ],
      "name": "RoleRevoked",
      "type": "event"
    },
    {
      "anonymous": false,
      "inputs": [
        {
          "indexed": true,
          "internalType": "address",
          "name": "from",
          "type": "address"
        },
        {
          "indexed": true,
          "internalType": "address",
          "name": "to",
          "type": "address"
        },
        {
          "indexed": true,
          "internalType": "uint256",
          "name": "tokenId",
          "type": "uint256"
        }
      ],
      "name": "Transfer",
      "type": "event"
    },
    {
      "inputs": [],
      "name": "DEFAULT_ADMIN_ROLE",
      "outputs": [
        {
          "internalType": "bytes32",
          "name": "",
          "type": "bytes32"
        }
      ],
      "stateMutability": "view",
      "type": "function"
    },
    {
      "inputs": [],
      "name": "MINTER_ROLE",
      "outputs": [
        {
          "internalType": "bytes32",
          "name": "",
          "type": "bytes32"
        }
      ],
      "stateMutability": "view",
      "type": "function"
    },
    {
      "inputs": [
        {
          "internalType": "address",
          "name": "to",
          "type": "address"
        },
        {
          "internalType": "uint256",
          "name": "tokenId",
          "type": "uint256"
        }
      ],
      "name": "approve",
      "outputs": [],
      "stateMutability": "nonpayable",
      "type": "function"
    },
    {
      "inputs": [
        {
          "internalType": "address",
          "name": "owner",
          "type": "address"
        }
      ],
      "name": "balanceOf",
      "outputs": [
        {
          "internalType": "uint256",
          "name": "",
          "type": "uint256"
        }
      ],
      "stateMutability": "view",
      "type": "function"
    },
    {
      "inputs": [
        {
          "internalType": "uint256",
          "name": "tokenId",
          "type": "uint256"
        }
      ],
      "name": "getApproved",
      "outputs": [
        {
          "internalType": "address",
          "name": "",
          "type": "address"
        }
      ],
      "stateMutability": "view",
      "type": "function"
    },
    {
      "inputs": [
        {
          "internalType": "bytes32",
          "name": "role",
          "type": "bytes32"
        }
      ],
      "name": "getRoleAdmin",
      "outputs": [
        {
          "internalType": "bytes32",
          "name": "",
          "type": "bytes32"
        }
      ],
      "stateMutability": "view",
      "type": "function"
    },
    {
      "inputs": [
        {
          "internalType": "bytes32",
          "name": "role",
          "type": "bytes32"
        },
        {
          "internalType": "address",
          "name": "account",
          "type": "address"
        }
      ],
      "name": "grantRole",
      "outputs": [],
      "stateMutability": "nonpayable",
      "type": "function"
    },
    {
      "inputs": [
        {
          "internalType": "bytes32",
          "name": "role",
          "type": "bytes32"
        },
        {
          "internalType": "address",
          "name": "account",
          "type": "address"
        }
      ],
      "name": "hasRole",
      "outputs": [
        {
          "internalType": "bool",
          "name": "",
          "type": "bool"
        }
      ],
      "stateMutability": "view",
      "type": "function"
    },
    {
      "inputs": [
        {
          "internalType": "bytes32",
          "name": "",
          "type": "bytes32"
        }
      ],
      "name": "hashToTokenId",
      "outputs": [
        {
          "internalType": "uint256",
          "name": "",
          "type": "uint256"
        }
      ],
      "stateMutability": "view",
      "type": "function"
    },
    {
      "inputs": [
        {
          "internalType": "address",
          "name": "owner",
          "type": "address"
        },
        {
          "internalType": "address",
          "name": "operator",
          "type": "address"
        }
      ],
      "name": "isApprovedForAll",
      "outputs": [
        {
          "internalType": "bool",
          "name": "",
          "type": "bool"
        }
      ],
      "stateMutability": "view",
      "type": "function"
    },
    {
      "inputs": [],
      "name": "name",
      "outputs": [
        {
          "internalType": "string",
          "name": "",
          "type": "string"
        }
      ],
      "stateMutability": "view",
      "type": "function"
    },
    {
      "inputs": [
        {
          "internalType": "uint256",
          "name": "tokenId",
          "type": "uint256"
        }
      ],
      "name": "ownerOf",
      "outputs": [
        {
          "internalType": "address",
          "name": "",
          "type": "address"
        }
      ],
      "stateMutability": "view",
      "type": "function"
    },
    {
      "inputs": [
        {
          "internalType": "bytes32",
          "name": "role",
          "type": "bytes32"
        },
        {
          "internalType": "address",
          "name": "callerConfirmation",
          "type": "address"
        }
      ],
      "name": "renounceRole",
      "outputs": [],
      "stateMutability": "nonpayable",
      "type": "function"
    },
    {
      "inputs": [
        {
          "internalType": "bytes32",
          "name": "role",
          "type": "bytes32"
        },
        {
          "internalType": "address",
          "name": "account",
          "type": "address"
        }
      ],
      "name": "revokeRole",
      "outputs": [],
      "stateMutability": "nonpayable",
      "type": "function"
    },
    {
      "inputs": [
        {
          "internalType": "address",
          "name": "from",
          "type": "address"
        },
        {
          "internalType": "address",
          "name": "to",
          "type": "address"
        },
        {
          "internalType": "uint256",
          "name": "tokenId",
          "type": "uint256"
        }
      ],
      "name": "safeTransferFrom",
      "outputs": [],
      "stateMutability": "nonpayable",
      "type": "function"
    },
    {
      "inputs": [
        {
          "internalType": "address",
          "name": "from",
          "type": "address"
        },
        {
          "internalType": "address",
          "name": "to",
          "type": "address"
        },
        {
          "internalType": "uint256",
          "name": "tokenId",
          "type": "uint256"
        },
        {
          "internalType": "bytes",
          "name": "data",
          "type": "bytes"
        }
      ],
      "name": "safeTransferFrom",
      "outputs": [],
      "stateMutability": "nonpayable",
      "type": "function"
    },
    {
      "inputs": [
        {
          "internalType": "address",
          "name": "operator",
          "type": "address"
        },
        {
          "internalType": "bool",
          "name": "approved",
          "type": "bool"
        }
      ],
      "name": "setApprovalForAll",
      "outputs": [],
      "stateMutability": "nonpayable",
      "type": "function"
    },
    {
      "inputs": [],
      "name": "symbol",
      "outputs": [
        {
          "internalType": "string",
          "name": "",
          "type": "string"
        }
      ],
      "stateMutability": "view",
      "type": "function"
    },
    {
      "inputs": [
        {
          "internalType": "uint256",
          "name": "index",
          "type": "uint256"
        }
      ],
      "name": "tokenByIndex",
      "outputs": [
        {
          "internalType": "uint256",
          "name": "",
          "type": "uint256"
        }
      ],
      "stateMutability": "view",
      "type": "function"
    },
    {
      "inputs": [
        {
          "internalType": "uint256",
          "name": "",
          "type": "uint256"
        }
      ],
      "name": "tokenIdToHash",
      "outputs": [
        {
          "internalType": "bytes32",
          "name": "",
          "type": "bytes32"
        }
      ],
      "stateMutability": "view",
      "type": "function"
    },
    {
      "inputs": [
        {
          "internalType": "address",
          "name": "owner",
          "type": "address"
        },
        {
          "internalType": "uint256",
          "name": "index",
          "type": "uint256"
        }
      ],
      "name": "tokenOfOwnerByIndex",
      "outputs": [
        {
          "internalType": "uint256",
          "name": "",
          "type": "uint256"
        }
      ],
      "stateMutability": "view",
      "type": "function"
    },
    {
      "inputs": [],
      "name": "totalSupply",
      "outputs": [
        {
          "internalType": "uint256",
          "name": "",
          "type": "uint256"
        }
      ],
      "stateMutability": "view",
      "type": "function"
    },
    {
      "inputs": [
        {
          "internalType": "address",
          "name": "from",
          "type": "address"
        },
        {
          "internalType": "address",
          "name": "to",
          "type": "address"
        },
        {
          "internalType": "uint256",
          "name": "tokenId",
          "type": "uint256"
        }
      ],
      "name": "transferFrom",
      "outputs": [],
      "stateMutability": "nonpayable",
      "type": "function"
    },
    {
      "inputs": [
        {
          "internalType": "address",
          "name": "to",
          "type": "address"
        },
        {
          "internalType": "string",
          "name": "uri",
          "type": "string"
        },
        {
          "internalType": "string",
          "name": "dataHashString",
          "type": "string"
        }
      ],
      "name": "mintCertificate",
      "outputs": [],
      "stateMutability": "nonpayable",
      "type": "function"
    },
    {
      "inputs": [
        {
          "internalType": "uint256",
          "name": "tokenId",
          "type": "uint256"
        }
      ],
      "name": "burn",
      "outputs": [],
      "stateMutability": "nonpayable",
      "type": "function"
    },
    {
      "inputs": [
        {
          "internalType": "uint256",
          "name": "tokenId",
          "type": "uint256"
        }
      ],
      "name": "tokenURI",
      "outputs": [
        {
          "internalType": "string",
          "name": "",
          "type": "string"
        }
      ],
      "stateMutability": "view",
      "type": "function"
    },
    {
      "inputs": [
        {
          "internalType": "bytes4",
          "name": "interfaceId",
          "type": "bytes4"
        }
      ],
      "name": "supportsInterface",
      "outputs": [
        {
          "internalType": "bool",
          "name": "",
          "type": "bool"
        }
      ],
      "stateMutability": "view",
      "type": "function"
    }
  ],
  "bytecode": "0x608060405234801562000010575f80fd5b5060405162003952380380620039528339818101604052810190620000369190620002e3565b6040518060400160405280600e81526020017f43657274696669636174654e46540000000000000000000000000000000000008152506040518060400160405280600481526020017f4345524600000000000000000000000000000000000000000000000000000000815250815f9081620000b291906200058c565b508060019081620000c491906200058c565b505050620000db5f801b836200011760201b60201c565b506200010e7f9f2df0fed2c77648de5860a4cc508cd0818c85b8b8a1ab4ceeef8d981c8956a6826200011760201b60201c565b50505062000670565b5f6200012a83836200021360201b60201c565b62000209576001600b5f8581526020019081526020015f205f015f8473ffffffffffffffffffffffffffffffffffffffff1673ffffffffffffffffffffffffffffffffffffffff1681526020019081526020015f205f6101000a81548160ff021916908315150217905550620001a56200027760201b60201c565b73ffffffffffffffffffffffffffffffffffffffff168273ffffffffffffffffffffffffffffffffffffffff16847f2f8788117e7eff1d82e926ec794901d17c78024a50270940304540a733656f0d60405160405180910390a4600190506200020d565b5f90505b92915050565b5f600b5f8481526020019081526020015f205f015f8373ffffffffffffffffffffffffffffffffffffffff1673ffffffffffffffffffffffffffffffffffffffff1681526020019081526020015f205f9054906101000a900460ff16905092915050565b5f33905090565b5f80fd5b5f73ffffffffffffffffffffffffffffffffffffffff82169050919050565b5f620002ad8262000282565b9050919050565b620002bf81620002a1565b8114620002ca575f80fd5b50565b5f81519050620002dd81620002b4565b92915050565b5f8060408385031215620002fc57620002fb6200027e565b5b5f6200030b85828601620002cd565b92505060206200031e85828601620002cd565b9150509250929050565b5f81519050919050565b7f4e487b71000000000000000000000000000000000000000000000000000000005f52604160045260245ffd5b7f4e487b71000000000000000000000000000000000000000000000000000000005f52602260045260245ffd5b5f6002820490506001821680620003a457607f821691505b602082108103620003ba57620003b96200035f565b5b50919050565b5f819050815f5260205f209050919050565b5f6020601f8301049050919050565b5f82821b905092915050565b5f600883026200041e7fffffffffffffffffffffffffffffffffffffffffffffffffffffffffffffffff82620003e1565b6200042a8683620003e1565b95508019841693508086168417925050509392505050565b5f819050919050565b5f819050919050565b5f620004746200046e620004688462000442565b6200044b565b62000442565b9050919050565b5f819050919050565b6200048f8362000454565b620004a76200049e826200047b565b848454620003ed565b825550505050565b5f90565b620004bd620004af565b620004ca81848462000484565b505050565b5b81811015620004f157620004e55f82620004b3565b600181019050620004d0565b5050565b601f82111562000540576200050a81620003c0565b6200051584620003d2565b8101602085101562000525578190505b6200053d6200053485620003d2565b830182620004cf565b50505b505050565b5f82821c905092915050565b5f620005625f198460080262000545565b1980831691505092915050565b5f6200057c838362000551565b9150826002028217905092915050565b620005978262000328565b67ffffffffffffffff811115620005b357620005b262000332565b5b620005bf82546200038c565b620005cc828285620004f5565b5f60209050601f83116001811462000602575f8415620005ed578287015190505b620005f985826200056f565b86555062000668565b601f1984166200061286620003c0565b5f5b828110156200063b5784890151825560018201915060208501945060208101905062000614565b868310156200065b578489015162000657601f89168262000551565b8355505b6001600288020188555050505b505050505050565b6132d4806200067e5f395ff3fe608060405234801561000f575f80fd5b50600436106101a7575f3560e01c8063621a1f74116100f7578063a22cb46511610095578063d53913931161006f578063d5391393146104ff578063d547741f1461051d578063e985e9c514610539578063f51f74a914610569576101a7565b8063a22cb46514610497578063b88d4fde146104b3578063c87b56dd146104cf576101a7565b806370a08231116100d157806370a08231146103fb57806391d148541461042b57806395d89b411461045b578063a217fddf14610479576101a7565b8063621a1f741461037f5780636352211e146103af5780636b55243d146103df576101a7565b8063248a9ca31161016457806336568abe1161013e57806336568abe146102fb57806342842e0e1461031757806342966c68146103335780634f6ccce71461034f576101a7565b8063248a9ca31461027f5780632f2ff15d146102af5780632f745c59146102cb576101a7565b806301ffc9a7146101ab57806306fdde03146101db578063081812fc146101f9578063095ea7b31461022957806318160ddd1461024557806323b872dd14610263575b5f80fd5b6101c560048036038101906101c09190612543565b610599565b6040516101d29190612588565b60405180910390f35b6101e36105aa565b6040516101f0919061262b565b60405180910390f35b610213600480360381019061020e919061267e565b610639565b60405161022091906126e8565b60405180910390f35b610243600480360381019061023e919061272b565b610654565b005b61024d61066a565b60405161025a9190612778565b60405180910390f35b61027d60048036038101906102789190612791565b610676565b005b61029960048036038101906102949190612814565b610775565b6040516102a6919061284e565b60405180910390f35b6102c960048036038101906102c49190612867565b610792565b005b6102e560048036038101906102e0919061272b565b6107b4565b6040516102f29190612778565b60405180910390f35b61031560048036038101906103109190612867565b610858565b005b610331600480360381019061032c9190612791565b6108d3565b005b61034d6004803603810190610348919061267e565b6108f2565b005b6103696004803603810190610364919061267e565b61093c565b6040516103769190612778565b60405180910390f35b6103996004803603810190610394919061267e565b6109ae565b6040516103a6919061284e565b60405180910390f35b6103c960048036038101906103c4919061267e565b6109c3565b6040516103d691906126e8565b60405180910390f35b6103f960048036038101906103f491906129d1565b6109d4565b005b61041560048036038101906104109190612a59565b610adc565b6040516104229190612778565b60405180910390f35b61044560048036038101906104409190612867565b610b92565b6040516104529190612588565b60405180910390f35b610463610bf6565b604051610470919061262b565b60405180910390f35b610481610c86565b60405161048e919061284e565b60405180910390f35b6104b160048036038101906104ac9190612aae565b610c8c565b005b6104cd60048036038101906104c89190612b8a565b610ca2565b005b6104e960048036038101906104e4919061267e565b610cc7565b6040516104f6919061262b565b60405180910390f35b610507610cd9565b604051610514919061284e565b60405180910390f35b61053760048036038101906105329190612867565b610cfd565b005b610553600480360381019061054e9190612c0a565b610d1f565b6040516105609190612588565b60405180910390f35b610583600480360381019061057e9190612814565b610dad565b6040516105909190612778565b60405180910390f35b5f6105a382610dc2565b9050919050565b60605f80546105b890612c75565b80601f01602080910402602001604051908101604052809291908181526020018280546105e490612c75565b801561062f5780601f106106065761010080835404028352916020019161062f565b820191905f5260205f20905b81548152906001019060200180831161061257829003601f168201915b5050505050905090565b5f61064382610e3b565b5061064d82610ec1565b9050919050565b6106668282610661610efa565b610f01565b5050565b5f600980549050905090565b5f73ffffffffffffffffffffffffffffffffffffffff168273ffffffffffffffffffffffffffffffffffffffff16036106e6575f6040517f64a0ae920000000000000000000000000000000000000000000000000000000081526004016106dd91906126e8565b60405180910390fd5b5f6106f983836106f4610efa565b610f13565b90508373ffffffffffffffffffffffffffffffffffffffff168173ffffffffffffffffffffffffffffffffffffffff161461076f578382826040517f64283d7b00000000000000000000000000000000000000000000000000000000815260040161076693929190612ca5565b60405180910390fd5b50505050565b5f600b5f8381526020019081526020015f20600101549050919050565b61079b82610775565b6107a481610f28565b6107ae8383610f3c565b50505050565b5f6107be83610adc565b82106108035782826040517fa57d13dc0000000000000000000000000000000000000000000000000000000081526004016107fa929190612cda565b60405180910390fd5b60075f8473ffffffffffffffffffffffffffffffffffffffff1673ffffffffffffffffffffffffffffffffffffffff1681526020019081526020015f205f8381526020019081526020015f2054905092915050565b610860610efa565b73ffffffffffffffffffffffffffffffffffffffff168173ffffffffffffffffffffffffffffffffffffffff16146108c4576040517f6697b23200000000000000000000000000000000000000000000000000000000815260040160405180910390fd5b6108ce8282611026565b505050565b6108ed83838360405180602001604052805f815250610ca2565b505050565b6108fb81611110565b5f600e5f8381526020019081526020015f20549050600d5f8281526020019081526020015f205f9055600e5f8381526020019081526020015f205f90555050565b5f61094561066a565b821061098a575f826040517fa57d13dc000000000000000000000000000000000000000000000000000000008152600401610981929190612cda565b60405180910390fd5b6009828154811061099e5761099d612d01565b5b905f5260205f2001549050919050565b600e602052805f5260405f205f915090505481565b5f6109cd82610e3b565b9050919050565b7f9f2df0fed2c77648de5860a4cc508cd0818c85b8b8a1ab4ceeef8d981c8956a66109fe81610f28565b5f82604051602001610a109190612d68565b6040516020818303038152906040528051906020012090505f600d5f8381526020019081526020015f205414610a7b576040517f08c379a0000000000000000000000000000000000000000000000000000000008152600401610a7290612dee565b60405180910390fd5b5f600c5f815480929190610a8e90612e39565b919050559050610a9e8682611126565b610aa88186611143565b80600d5f8481526020019081526020015f208190555081600e5f8381526020019081526020015f2081905550505050505050565b5f8073ffffffffffffffffffffffffffffffffffffffff168273ffffffffffffffffffffffffffffffffffffffff1603610b4d575f6040517f89c62b64000000000000000000000000000000000000000000000000000000008152600401610b4491906126e8565b60405180910390fd5b60035f8373ffffffffffffffffffffffffffffffffffffffff1673ffffffffffffffffffffffffffffffffffffffff1681526020019081526020015f20549050919050565b5f600b5f8481526020019081526020015f205f015f8373ffffffffffffffffffffffffffffffffffffffff1673ffffffffffffffffffffffffffffffffffffffff1681526020019081526020015f205f9054906101000a900460ff16905092915050565b606060018054610c0590612c75565b80601f0160208091040260200160405190810160405280929190818152602001828054610c3190612c75565b8015610c7c5780601f10610c5357610100808354040283529160200191610c7c565b820191905f5260205f20905b815481529060010190602001808311610c5f57829003601f168201915b5050505050905090565b5f801b81565b610c9e610c97610efa565b838361119d565b5050565b610cad848484610676565b610cc1610cb8610efa565b85858585611306565b50505050565b6060610cd2826114b2565b9050919050565b7f9f2df0fed2c77648de5860a4cc508cd0818c85b8b8a1ab4ceeef8d981c8956a681565b610d0682610775565b610d0f81610f28565b610d198383611026565b50505050565b5f60055f8473ffffffffffffffffffffffffffffffffffffffff1673ffffffffffffffffffffffffffffffffffffffff1681526020019081526020015f205f8373ffffffffffffffffffffffffffffffffffffffff1673ffffffffffffffffffffffffffffffffffffffff1681526020019081526020015f205f9054906101000a900460ff16905092915050565b600d602052805f5260405f205f915090505481565b5f7f7965db0b000000000000000000000000000000000000000000000000000000007bffffffffffffffffffffffffffffffffffffffffffffffffffffffff1916827bffffffffffffffffffffffffffffffffffffffffffffffffffffffff19161480610e345750610e33826115bd565b5b9050919050565b5f80610e4683611636565b90505f73ffffffffffffffffffffffffffffffffffffffff168173ffffffffffffffffffffffffffffffffffffffff1603610eb857826040517f7e273289000000000000000000000000000000000000000000000000000000008152600401610eaf9190612778565b60405180910390fd5b80915050919050565b5f60045f8381526020019081526020015f205f9054906101000a900473ffffffffffffffffffffffffffffffffffffffff169050919050565b5f33905090565b610f0e838383600161166f565b505050565b5f610f1f84848461182e565b90509392505050565b610f3981610f34610efa565b611948565b50565b5f610f478383610b92565b61101c576001600b5f8581526020019081526020015f205f015f8473ffffffffffffffffffffffffffffffffffffffff1673ffffffffffffffffffffffffffffffffffffffff1681526020019081526020015f205f6101000a81548160ff021916908315150217905550610fb9610efa565b73ffffffffffffffffffffffffffffffffffffffff168273ffffffffffffffffffffffffffffffffffffffff16847f2f8788117e7eff1d82e926ec794901d17c78024a50270940304540a733656f0d60405160405180910390a460019050611020565b5f90505b92915050565b5f6110318383610b92565b15611106575f600b5f8581526020019081526020015f205f015f8473ffffffffffffffffffffffffffffffffffffffff1673ffffffffffffffffffffffffffffffffffffffff1681526020019081526020015f205f6101000a81548160ff0219169083151502179055506110a3610efa565b73ffffffffffffffffffffffffffffffffffffffff168273ffffffffffffffffffffffffffffffffffffffff16847ff6391f5c32d9c69d2a47ea670b442974b53935d1edc7fd64eb21e047a839171b60405160405180910390a46001905061110a565b5f90505b92915050565b6111225f8261111d610efa565b610f13565b5050565b61113f828260405180602001604052805f815250611999565b5050565b8060065f8481526020019081526020015f209081611161919061301d565b507ff8e1a15aba9398e019f0b49df1a4fde98ee17ae345cb5f6b5e2c27f5033e8ce7826040516111919190612778565b60405180910390a15050565b5f73ffffffffffffffffffffffffffffffffffffffff168273ffffffffffffffffffffffffffffffffffffffff160361120d57816040517f5b08ba1800000000000000000000000000000000000000000000000000000000815260040161120491906126e8565b60405180910390fd5b8060055f8573ffffffffffffffffffffffffffffffffffffffff1673ffffffffffffffffffffffffffffffffffffffff1681526020019081526020015f205f8473ffffffffffffffffffffffffffffffffffffffff1673ffffffffffffffffffffffffffffffffffffffff1681526020019081526020015f205f6101000a81548160ff0219169083151502179055508173ffffffffffffffffffffffffffffffffffffffff168373ffffffffffffffffffffffffffffffffffffffff167f17307eab39ab6107e8899845ad3d59bd9653f200f220920489ca2b5937696c31836040516112f99190612588565b60405180910390a3505050565b5f8373ffffffffffffffffffffffffffffffffffffffff163b11156114ab578273ffffffffffffffffffffffffffffffffffffffff1663150b7a02868685856040518563ffffffff1660e01b8152600401611364949392919061313e565b6020604051808303815f875af192505050801561139f57506040513d601f19601f8201168201806040525081019061139c919061319c565b60015b611420573d805f81146113cd576040519150601f19603f3d011682016040523d82523d5f602084013e6113d2565b606091505b505f81510361141857836040517f64a0ae9200000000000000000000000000000000000000000000000000000000815260040161140f91906126e8565b60405180910390fd5b805160208201fd5b63150b7a0260e01b7bffffffffffffffffffffffffffffffffffffffffffffffffffffffff1916817bffffffffffffffffffffffffffffffffffffffffffffffffffffffff1916146114a957836040517f64a0ae920000000000000000000000000000000000000000000000000000000081526004016114a091906126e8565b60405180910390fd5b505b5050505050565b60606114bd82610e3b565b505f60065f8481526020019081526020015f2080546114db90612c75565b80601f016020809104026020016040519081016040528092919081815260200182805461150790612c75565b80156115525780601f1061152957610100808354040283529160200191611552565b820191905f5260205f20905b81548152906001019060200180831161153557829003601f168201915b505050505090505f6115626119bc565b90505f8151036115765781925050506115b8565b5f825111156115aa5780826040516020016115929291906131c7565b604051602081830303815290604052925050506115b8565b6115b3846119d2565b925050505b919050565b5f7f780e9d63000000000000000000000000000000000000000000000000000000007bffffffffffffffffffffffffffffffffffffffffffffffffffffffff1916827bffffffffffffffffffffffffffffffffffffffffffffffffffffffff1916148061162f575061162e82611a38565b5b9050919050565b5f60025f8381526020019081526020015f205f9054906101000a900473ffffffffffffffffffffffffffffffffffffffff169050919050565b80806116a757505f73ffffffffffffffffffffffffffffffffffffffff168273ffffffffffffffffffffffffffffffffffffffff1614155b156117d9575f6116b684610e3b565b90505f73ffffffffffffffffffffffffffffffffffffffff168373ffffffffffffffffffffffffffffffffffffffff161415801561172057508273ffffffffffffffffffffffffffffffffffffffff168173ffffffffffffffffffffffffffffffffffffffff1614155b801561173357506117318184610d1f565b155b1561177557826040517fa9fbf51f00000000000000000000000000000000000000000000000000000000815260040161176c91906126e8565b60405180910390fd5b81156117d757838573ffffffffffffffffffffffffffffffffffffffff168273ffffffffffffffffffffffffffffffffffffffff167f8c5be1e5ebec7d5bd14f71427d1e84f3dd0314c0f7b2291e5b200ac8c7c3b92560405160405180910390a45b505b8360045f8581526020019081526020015f205f6101000a81548173ffffffffffffffffffffffffffffffffffffffff021916908373ffffffffffffffffffffffffffffffffffffffff16021790555050505050565b5f8061183b858585611a98565b90505f73ffffffffffffffffffffffffffffffffffffffff168173ffffffffffffffffffffffffffffffffffffffff160361187e5761187984611ca3565b6118bd565b8473ffffffffffffffffffffffffffffffffffffffff168173ffffffffffffffffffffffffffffffffffffffff16146118bc576118bb8185611ce7565b5b5b5f73ffffffffffffffffffffffffffffffffffffffff168573ffffffffffffffffffffffffffffffffffffffff16036118fe576118f984611dbe565b61193d565b8473ffffffffffffffffffffffffffffffffffffffff168173ffffffffffffffffffffffffffffffffffffffff161461193c5761193b8585611e7e565b5b5b809150509392505050565b6119528282610b92565b6119955780826040517fe2517d3f00000000000000000000000000000000000000000000000000000000815260040161198c9291906131ea565b60405180910390fd5b5050565b6119a38383611f02565b6119b76119ae610efa565b5f858585611306565b505050565b606060405180602001604052805f815250905090565b60606119dd82610e3b565b505f6119e76119bc565b90505f815111611a055760405180602001604052805f815250611a30565b80611a0f84611ff5565b604051602001611a209291906131c7565b6040516020818303038152906040525b915050919050565b5f634906490660e01b7bffffffffffffffffffffffffffffffffffffffffffffffffffffffff1916827bffffffffffffffffffffffffffffffffffffffffffffffffffffffff19161480611a915750611a90826120bf565b5b9050919050565b5f80611aa384611636565b90505f73ffffffffffffffffffffffffffffffffffffffff168373ffffffffffffffffffffffffffffffffffffffff1614611ae457611ae38184866121a0565b5b5f73ffffffffffffffffffffffffffffffffffffffff168173ffffffffffffffffffffffffffffffffffffffff1614611b6f57611b235f855f8061166f565b600160035f8373ffffffffffffffffffffffffffffffffffffffff1673ffffffffffffffffffffffffffffffffffffffff1681526020019081526020015f205f82825403925050819055505b5f73ffffffffffffffffffffffffffffffffffffffff168573ffffffffffffffffffffffffffffffffffffffff1614611bee57600160035f8773ffffffffffffffffffffffffffffffffffffffff1673ffffffffffffffffffffffffffffffffffffffff1681526020019081526020015f205f82825401925050819055505b8460025f8681526020019081526020015f205f6101000a81548173ffffffffffffffffffffffffffffffffffffffff021916908373ffffffffffffffffffffffffffffffffffffffff160217905550838573ffffffffffffffffffffffffffffffffffffffff168273ffffffffffffffffffffffffffffffffffffffff167fddf252ad1be2c89b69c2b068fc378daa952ba7f163c4a11628f55a4df523b3ef60405160405180910390a4809150509392505050565b600980549050600a5f8381526020019081526020015f2081905550600981908060018154018082558091505060019003905f5260205f20015f909190919091505550565b5f611cf183610adc565b90505f60085f8481526020019081526020015f205490505f60075f8673ffffffffffffffffffffffffffffffffffffffff1673ffffffffffffffffffffffffffffffffffffffff1681526020019081526020015f209050828214611d90575f815f8581526020019081526020015f2054905080825f8581526020019081526020015f20819055508260085f8381526020019081526020015f2081905550505b60085f8581526020019081526020015f205f9055805f8481526020019081526020015f205f90555050505050565b5f6001600980549050611dd19190613211565b90505f600a5f8481526020019081526020015f205490505f60098381548110611dfd57611dfc612d01565b5b905f5260205f20015490508060098381548110611e1d57611e1c612d01565b5b905f5260205f20018190555081600a5f8381526020019081526020015f2081905550600a5f8581526020019081526020015f205f90556009805480611e6557611e64613244565b5b600190038181905f5260205f20015f9055905550505050565b5f6001611e8a84610adc565b611e949190613211565b90508160075f8573ffffffffffffffffffffffffffffffffffffffff1673ffffffffffffffffffffffffffffffffffffffff1681526020019081526020015f205f8381526020019081526020015f20819055508060085f8481526020019081526020015f2081905550505050565b5f73ffffffffffffffffffffffffffffffffffffffff168273ffffffffffffffffffffffffffffffffffffffff1603611f72575f6040517f64a0ae92000000000000000000000000000000000000000000000000000000008152600401611f6991906126e8565b60405180910390fd5b5f611f7e83835f610f13565b90505f73ffffffffffffffffffffffffffffffffffffffff168173ffffffffffffffffffffffffffffffffffffffff1614611ff0575f6040517f73c6ac6e000000000000000000000000000000000000000000000000000000008152600401611fe791906126e8565b60405180910390fd5b505050565b60605f600161200384612263565b0190505f8167ffffffffffffffff811115612021576120206128ad565b5b6040519080825280601f01601f1916602001820160405280156120535781602001600182028036833780820191505090505b5090505f82602083010190505b6001156120b4578080600190039150507f3031323334353637383961626364656600000000000000000000000000000000600a86061a8153600a85816120a9576120a8613271565b5b0494505f8503612060575b819350505050919050565b5f7f80ac58cd000000000000000000000000000000000000000000000000000000007bffffffffffffffffffffffffffffffffffffffffffffffffffffffff1916827bffffffffffffffffffffffffffffffffffffffffffffffffffffffff1916148061218957507f5b5e139f000000000000000000000000000000000000000000000000000000007bffffffffffffffffffffffffffffffffffffffffffffffffffffffff1916827bffffffffffffffffffffffffffffffffffffffffffffffffffffffff1916145b806121995750612198826123b4565b5b9050919050565b6121ab83838361241d565b61225e575f73ffffffffffffffffffffffffffffffffffffffff168373ffffffffffffffffffffffffffffffffffffffff160361221f57806040517f7e2732890000000000000000000000000000000000000000000000000000000081526004016122169190612778565b60405180910390fd5b81816040517f177e802f000000000000000000000000000000000000000000000000000000008152600401612255929190612cda565b60405180910390fd5b505050565b5f805f90507a184f03e93ff9f4daa797ed6e38ed64bf6a1f01000000000000000083106122bf577a184f03e93ff9f4daa797ed6e38ed64bf6a1f01000000000000000083816122b5576122b4613271565b5b0492506040810190505b6d04ee2d6d415b85acef810000000083106122fc576d04ee2d6d415b85acef810000000083816122f2576122f1613271565b5b0492506020810190505b662386f26fc10000831061232b57662386f26fc10000838161232157612320613271565b5b0492506010810190505b6305f5e1008310612354576305f5e100838161234a57612349613271565b5b0492506008810190505b612710831061237957612710838161236f5761236e613271565b5b0492506004810190505b6064831061239c576064838161239257612391613271565b5b0492506002810190505b600a83106123ab576001810190505b80915050919050565b5f7f01ffc9a7000000000000000000000000000000000000000000000000000000007bffffffffffffffffffffffffffffffffffffffffffffffffffffffff1916827bffffffffffffffffffffffffffffffffffffffffffffffffffffffff1916149050919050565b5f8073ffffffffffffffffffffffffffffffffffffffff168373ffffffffffffffffffffffffffffffffffffffff16141580156124d457508273ffffffffffffffffffffffffffffffffffffffff168473ffffffffffffffffffffffffffffffffffffffff16148061249557506124948484610d1f565b5b806124d357508273ffffffffffffffffffffffffffffffffffffffff166124bb83610ec1565b73ffffffffffffffffffffffffffffffffffffffff16145b5b90509392505050565b5f604051905090565b5f80fd5b5f80fd5b5f7fffffffff0000000000000000000000000000000000000000000000000000000082169050919050565b612522816124ee565b811461252c575f80fd5b50565b5f8135905061253d81612519565b92915050565b5f60208284031215612558576125576124e6565b5b5f6125658482850161252f565b91505092915050565b5f8115159050919050565b6125828161256e565b82525050565b5f60208201905061259b5f830184612579565b92915050565b5f81519050919050565b5f82825260208201905092915050565b5f5b838110156125d85780820151818401526020810190506125bd565b5f8484015250505050565b5f601f19601f8301169050919050565b5f6125fd826125a1565b61260781856125ab565b93506126178185602086016125bb565b612620816125e3565b840191505092915050565b5f6020820190508181035f83015261264381846125f3565b905092915050565b5f819050919050565b61265d8161264b565b8114612667575f80fd5b50565b5f8135905061267881612654565b92915050565b5f60208284031215612693576126926124e6565b5b5f6126a08482850161266a565b91505092915050565b5f73ffffffffffffffffffffffffffffffffffffffff82169050919050565b5f6126d2826126a9565b9050919050565b6126e2816126c8565b82525050565b5f6020820190506126fb5f8301846126d9565b92915050565b61270a816126c8565b8114612714575f80fd5b50565b5f8135905061272581612701565b92915050565b5f8060408385031215612741576127406124e6565b5b5f61274e85828601612717565b925050602061275f8582860161266a565b9150509250929050565b6127728161264b565b82525050565b5f60208201905061278b5f830184612769565b92915050565b5f805f606084860312156127a8576127a76124e6565b5b5f6127b586828701612717565b93505060206127c686828701612717565b92505060406127d78682870161266a565b9150509250925092565b5f819050919050565b6127f3816127e1565b81146127fd575f80fd5b50565b5f8135905061280e816127ea565b92915050565b5f60208284031215612829576128286124e6565b5b5f61283684828501612800565b91505092915050565b612848816127e1565b82525050565b5f6020820190506128615f83018461283f565b92915050565b5f806040838503121561287d5761287c6124e6565b5b5f61288a85828601612800565b925050602061289b85828601612717565b9150509250929050565b5f80fd5b5f80fd5b7f4e487b71000000000000000000000000000000000000000000000000000000005f52604160045260245ffd5b6128e3826125e3565b810181811067ffffffffffffffff82111715612902576129016128ad565b5b80604052505050565b5f6129146124dd565b905061292082826128da565b919050565b5f67ffffffffffffffff82111561293f5761293e6128ad565b5b612948826125e3565b9050602081019050919050565b828183375f83830152505050565b5f61297561297084612925565b61290b565b905082815260208101848484011115612991576129906128a9565b5b61299c848285612955565b509392505050565b5f82601f8301126129b8576129b76128a5565b5b81356129c8848260208601612963565b91505092915050565b5f805f606084860312156129e8576129e76124e6565b5b5f6129f586828701612717565b935050602084013567ffffffffffffffff811115612a1657612a156124ea565b5b612a22868287016129a4565b925050604084013567ffffffffffffffff811115612a4357612a426124ea565b5b612a4f868287016129a4565b9150509250925092565b5f60208284031215612a6e57612a6d6124e6565b5b5f612a7b84828501612717565b91505092915050565b612a8d8161256e565b8114612a97575f80fd5b50565b5f81359050612aa881612a84565b92915050565b5f8060408385031215612ac457612ac36124e6565b5b5f612ad185828601612717565b9250506020612ae285828601612a9a565b9150509250929050565b5f67ffffffffffffffff821115612b0657612b056128ad565b5b612b0f826125e3565b9050602081019050919050565b5f612b2e612b2984612aec565b61290b565b905082815260208101848484011115612b4a57612b496128a9565b5b612b55848285612955565b509392505050565b5f82601f830112612b7157612b706128a5565b5b8135612b81848260208601612b1c565b91505092915050565b5f805f8060808587031215612ba257612ba16124e6565b5b5f612baf87828801612717565b9450506020612bc087828801612717565b9350506040612bd18782880161266a565b925050606085013567ffffffffffffffff811115612bf257612bf16124ea565b5b612bfe87828801612b5d565b91505092959194509250565b5f8060408385031215612c2057612c1f6124e6565b5b5f612c2d85828601612717565b9250506020612c3e85828601612717565b9150509250929050565b7f4e487b71000000000000000000000000000000000000000000000000000000005f52602260045260245ffd5b5f6002820490506001821680612c8c57607f821691505b602082108103612c9f57612c9e612c48565b5b50919050565b5f606082019050612cb85f8301866126d9565b612cc56020830185612769565b612cd260408301846126d9565b949350505050565b5f604082019050612ced5f8301856126d9565b612cfa6020830184612769565b9392505050565b7f4e487b71000000000000000000000000000000000000000000000000000000005f52603260045260245ffd5b5f81905092915050565b5f612d42826125a1565b612d4c8185612d2e565b9350612d5c8185602086016125bb565b80840191505092915050565b5f612d738284612d38565b915081905092915050565b7f4475206c696575206e61792064612064756f63206361702043657274696669635f8201527f6174650000000000000000000000000000000000000000000000000000000000602082015250565b5f612dd86023836125ab565b9150612de382612d7e565b604082019050919050565b5f6020820190508181035f830152612e0581612dcc565b9050919050565b7f4e487b71000000000000000000000000000000000000000000000000000000005f52601160045260245ffd5b5f612e438261264b565b91507fffffffffffffffffffffffffffffffffffffffffffffffffffffffffffffffff8203612e7557612e74612e0c565b5b600182019050919050565b5f819050815f5260205f209050919050565b5f6020601f8301049050919050565b5f82821b905092915050565b5f60088302612edc7fffffffffffffffffffffffffffffffffffffffffffffffffffffffffffffffff82612ea1565b612ee68683612ea1565b95508019841693508086168417925050509392505050565b5f819050919050565b5f612f21612f1c612f178461264b565b612efe565b61264b565b9050919050565b5f819050919050565b612f3a83612f07565b612f4e612f4682612f28565b848454612ead565b825550505050565b5f90565b612f62612f56565b612f6d818484612f31565b505050565b5b81811015612f9057612f855f82612f5a565b600181019050612f73565b5050565b601f821115612fd557612fa681612e80565b612faf84612e92565b81016020851015612fbe578190505b612fd2612fca85612e92565b830182612f72565b50505b505050565b5f82821c905092915050565b5f612ff55f1984600802612fda565b1980831691505092915050565b5f61300d8383612fe6565b9150826002028217905092915050565b613026826125a1565b67ffffffffffffffff81111561303f5761303e6128ad565b5b6130498254612c75565b613054828285612f94565b5f60209050601f831160018114613085575f8415613073578287015190505b61307d8582613002565b8655506130e4565b601f19841661309386612e80565b5f5b828110156130ba57848901518255600182019150602085019450602081019050613095565b868310156130d757848901516130d3601f891682612fe6565b8355505b6001600288020188555050505b505050505050565b5f81519050919050565b5f82825260208201905092915050565b5f613110826130ec565b61311a81856130f6565b935061312a8185602086016125bb565b613133816125e3565b840191505092915050565b5f6080820190506131515f8301876126d9565b61315e60208301866126d9565b61316b6040830185612769565b818103606083015261317d8184613106565b905095945050505050565b5f8151905061319681612519565b92915050565b5f602082840312156131b1576131b06124e6565b5b5f6131be84828501613188565b91505092915050565b5f6131d28285612d38565b91506131de8284612d38565b91508190509392505050565b5f6040820190506131fd5f8301856126d9565b61320a602083018461283f565b9392505050565b5f61321b8261264b565b91506132268361264b565b925082820390508181111561323e5761323d612e0c565b5b92915050565b7f4e487b71000000000000000000000000000000000000000000000000000000005f52603160045260245ffd5b7f4e487b71000000000000000000000000000000000000000000000000000000005f52601260045260245ffdfea2646970667358221220b000dec2c41a8c1235a53cc86970e17c64b46fa97077b51afbec7b3673abffce64736f6c63430008180033",
  "immutableReferences": {},
  "source": "// SPDX-License-Identifier: MIT\r\npragma solidity ^0.8.20;\r\n\r\nimport \"@openzeppelin/contracts/token/ERC721/ERC721.sol\";\r\nimport \"@openzeppelin/contracts/token/ERC721/extensions/ERC721URIStorage.sol\";\r\nimport \"@openzeppelin/contracts/token/ERC721/extensions/ERC721Burnable.sol\";\r\nimport \"@openzeppelin/contracts/token/ERC721/extensions/ERC721Enumerable.sol\";\r\nimport \"@openzeppelin/contracts/access/AccessControl.sol\";\r\n\r\ncontract CertificateNFT is ERC721, ERC721URIStorage, ERC721Burnable, ERC721Enumerable, AccessControl {\r\n    bytes32 public constant MINTER_ROLE = keccak256(\"MINTER_ROLE\");\r\n    uint256 private _nextTokenId;\r\n\r\n    // Mapping lin kt Hash -> TokenID (Phc v xc thc)\r\n    mapping(bytes32 => uint256) public hashToTokenId;\r\n    mapping(uint256 => bytes32) public tokenIdToHash; // Mapping ngc  xa hash khi burn\r\n\r\n    constructor(address defaultAdmin, address minter) ERC721(\"CertificateNFT\", \"CERF\") {\r\n        _grantRole(DEFAULT_ADMIN_ROLE, defaultAdmin);\r\n        _grantRole(MINTER_ROLE, minter);\r\n    }\r\n\r\n    function mintCertificate(address to, string memory uri, string memory dataHashString) public onlyRole(MINTER_ROLE) {\r\n        // Hash chui string u vo\r\n        bytes32 hash = keccak256(abi.encodePacked(dataHashString));\r\n        // Kim tra xem hash ny  c token ID cha\r\n        require(hashToTokenId[hash] == 0, \"Du lieu nay da duoc cap Certificate\");\r\n\r\n        uint256 tokenId = _nextTokenId++;\r\n        \r\n        _safeMint(to, tokenId);\r\n        _setTokenURI(tokenId, uri);\r\n        \r\n        // Lu tr lin kt\r\n        hashToTokenId[hash] = tokenId;\r\n        tokenIdToHash[tokenId] = hash;\r\n    }\r\n\r\n    // Override hm burn  xa d liu hash khi NFT b hy (Revoke)\r\n    function burn(uint256 tokenId) public override {\r\n        // Ch s hu hoc ngi c y quyn mi c burn\r\n        super.burn(tokenId);\r\n        // Xa thng tin mapping  hash ny c th c mint li\r\n        bytes32 hash = tokenIdToHash[tokenId];\r\n        delete hashToTokenId[hash];\r\n        delete tokenIdToHash[tokenId];\r\n    }\r\n\r\n    //Override functions\r\n    function _update(address to, uint256 tokenId, address auth)\r\n        internal\r\n        override(ERC721, ERC721Enumerable)\r\n        returns (address)\r\n    {\r\n        return super._update(to, tokenId, auth);\r\n    }\r\n\r\n    function _increaseBalance(address account, uint128 value)\r\n        internal\r\n        override(ERC721, ERC721Enumerable)\r\n    {\r\n        super._increaseBalance(account, value);\r\n    }\r\n\r\n    function tokenURI(uint256 tokenId)\r\n        public\r\n        view\r\n        override(ERC721, ERC721URIStorage)\r\n        returns (string memory)\r\n    {\r\n        return super.tokenURI(tokenId);\r\n    }\r\n\r\n    function supportsInterface(bytes4 interfaceId)\r\n        public\r\n        view\r\n        override(ERC721, ERC721URIStorage, ERC721Enumerable, AccessControl)\r\n        returns (bool)\r\n    {\r\n        return super.supportsInterface(interfaceId);\r\n    }\r\n}",
  "sourcePath": "D:\\Lets-Make-Your-NFTs\\Lets-Make-Your-NFTs\\contracts\\CertificateNFT.sol",
  "compiler": {
    "name": "solc",
    "version": "0.8.24+commit.e11b9ed9.Emscripten.clang"
  },
  "schemaVersion": "3.4.16",
  "updatedAt": "2025-11-25T08:47:01.570Z",
  "devdoc": {
    "errors": {
      "AccessControlBadConfirmation()": [
        {
          "details": "The caller of a function is not the expected one. NOTE: Don't confuse with {AccessControlUnauthorizedAccount}."
        }
      ],
      "AccessControlUnauthorizedAccount(address,bytes32)": [
        {
          "details": "The `account` is missing a role."
        }
      ],
      "ERC721EnumerableForbiddenBatchMint()": [
        {
          "details": "Batch mint is not allowed."
        }
      ],
      "ERC721IncorrectOwner(address,uint256,address)": [
        {
          "details": "Indicates an error related to the ownership over a particular token. Used in transfers.",
          "params": {
            "owner": "Address of the current owner of a token.",
            "sender": "Address whose tokens are being transferred.",
            "tokenId": "Identifier number of a token."
          }
        }
      ],
      "ERC721InsufficientApproval(address,uint256)": [
        {
          "details": "Indicates a failure with the `operator`s approval. Used in transfers.",
          "params": {
            "operator": "Address that may be allowed to operate on tokens without being their owner.",
            "tokenId": "Identifier number of a token."
          }
        }
      ],
      "ERC721InvalidApprover(address)": [
        {
          "details": "Indicates a failure with the `approver` of a token to be approved. Used in approvals.",
          "params": {
            "approver": "Address initiating an approval operation."
          }
        }
      ],
      "ERC721InvalidOperator(address)": [
        {
          "details": "Indicates a failure with the `operator` to be approved. Used in approvals.",
          "params": {
            "operator": "Address that may be allowed to operate on tokens without being their owner."
          }
        }
      ],
      "ERC721InvalidOwner(address)": [
        {
          "details": "Indicates that an address can't be an owner. For example, `address(0)` is a forbidden owner in ERC-20. Used in balance queries.",
          "params": {
            "owner": "Address of the current owner of a token."
          }
        }
      ],
      "ERC721InvalidReceiver(address)": [
        {
          "details": "Indicates a failure with the token `receiver`. Used in transfers.",
          "params": {
            "receiver": "Address to which tokens are being transferred."
          }
        }
      ],
      "ERC721InvalidSender(address)": [
        {
          "details": "Indicates a failure with the token `sender`. Used in transfers.",
          "params": {
            "sender": "Address whose tokens are being transferred."
          }
        }
      ],
      "ERC721NonexistentToken(uint256)": [
        {
          "details": "Indicates a `tokenId` whose `owner` is the zero address.",
          "params": {
            "tokenId": "Identifier number of a token."
          }
        }
      ],
      "ERC721OutOfBoundsIndex(address,uint256)": [
        {
          "details": "An `owner`'s token query was out of bounds for `index`. NOTE: The owner being `address(0)` indicates a global out of bounds index."
        }
      ]
    },
    "events": {
      "Approval(address,address,uint256)": {
        "details": "Emitted when `owner` enables `approved` to manage the `tokenId` token."
      },
      "ApprovalForAll(address,address,bool)": {
        "details": "Emitted when `owner` enables or disables (`approved`) `operator` to manage all of its assets."
      },
      "BatchMetadataUpdate(uint256,uint256)": {
        "details": "This event emits when the metadata of a range of tokens is changed. So that the third-party platforms such as NFT market could timely update the images and related attributes of the NFTs."
      },
      "MetadataUpdate(uint256)": {
        "details": "This event emits when the metadata of a token is changed. So that the third-party platforms such as NFT market could timely update the images and related attributes of the NFT."
      },
      "RoleAdminChanged(bytes32,bytes32,bytes32)": {
        "details": "Emitted when `newAdminRole` is set as ``role``'s admin role, replacing `previousAdminRole` `DEFAULT_ADMIN_ROLE` is the starting admin for all roles, despite {RoleAdminChanged} not being emitted to signal this."
      },
      "RoleGranted(bytes32,address,address)": {
        "details": "Emitted when `account` is granted `role`. `sender` is the account that originated the contract call. This account bears the admin role (for the granted role). Expected in cases where the role was granted using the internal {AccessControl-_grantRole}."
      },
      "RoleRevoked(bytes32,address,address)": {
        "details": "Emitted when `account` is revoked `role`. `sender` is the account that originated the contract call:   - if using `revokeRole`, it is the admin role bearer   - if using `renounceRole`, it is the role bearer (i.e. `account`)"
      },
      "Transfer(address,address,uint256)": {
        "details": "Emitted when `tokenId` token is transferred from `from` to `to`."
      }
    },
    "kind": "dev",
    "methods": {
      "approve(address,uint256)": {
        "details": "Gives permission to `to` to transfer `tokenId` token to another account. The approval is cleared when the token is transferred. Only a single account can be approved at a time, so approving the zero address clears previous approvals. Requirements: - The caller must own the token or be an approved operator. - `tokenId` must exist. Emits an {Approval} event."
      },
      "balanceOf(address)": {
        "details": "Returns the number of tokens in ``owner``'s account."
      },
      "burn(uint256)": {
        "details": "Burns `tokenId`. See {ERC721-_burn}. Requirements: - The caller must own `tokenId` or be an approved operator."
      },
      "getApproved(uint256)": {
        "details": "Returns the account approved for `tokenId` token. Requirements: - `tokenId` must exist."
      },
      "getRoleAdmin(bytes32)": {
        "details": "Returns the admin role that controls `role`. See {grantRole} and {revokeRole}. To change a role's admin, use {_setRoleAdmin}."
      },
      "grantRole(bytes32,address)": {
        "details": "Grants `role` to `account`. If `account` had not been already granted `role`, emits a {RoleGranted} event. Requirements: - the caller must have ``role``'s admin role. May emit a {RoleGranted} event."
      },
      "hasRole(bytes32,address)": {
        "details": "Returns `true` if `account` has been granted `role`."
      },
      "isApprovedForAll(address,address)": {
        "details": "Returns if the `operator` is allowed to manage all of the assets of `owner`. See {setApprovalForAll}"
      },
      "name()": {
        "details": "Returns the token collection name."
      },
      "ownerOf(uint256)": {
        "details": "Returns the owner of the `tokenId` token. Requirements: - `tokenId` must exist."
      },
      "renounceRole(bytes32,address)": {
        "details": "Revokes `role` from the calling account. Roles are often managed via {grantRole} and {revokeRole}: this function's purpose is to provide a mechanism for accounts to lose their privileges if they are compromised (such as when a trusted device is misplaced). If the calling account had been revoked `role`, emits a {RoleRevoked} event. Requirements: - the caller must be `callerConfirmation`. May emit a {RoleRevoked} event."
      },
      "revokeRole(bytes32,address)": {
        "details": "Revokes `role` from `account`. If `account` had been granted `role`, emits a {RoleRevoked} event. Requirements: - the caller must have ``role``'s admin role. May emit a {RoleRevoked} event."
      },
      "safeTransferFrom(address,address,uint256)": {
        "details": "Safely transfers `tokenId` token from `from` to `to`, checking first that contract recipients are aware of the ERC-721 protocol to prevent tokens from being forever locked. Requirements: - `from` cannot be the zero address. - `to` cannot be the zero address. - `tokenId` token must exist and be owned by `from`. - If the caller is not `from`, it must have been allowed to move this token by either {approve} or   {setApprovalForAll}. - If `to` refers to a smart contract, it must implement {IERC721Receiver-onERC721Received}, which is called upon   a safe transfer. Emits a {Transfer} event."
      },
      "safeTransferFrom(address,address,uint256,bytes)": {
        "details": "Safely transfers `tokenId` token from `from` to `to`. Requirements: - `from` cannot be the zero address. - `to` cannot be the zero address. - `tokenId` token must exist and be owned by `from`. - If the caller is not `from`, it must be approved to move this token by either {approve} or {setApprovalForAll}. - If `to` refers to a smart contract, it must implement {IERC721Receiver-onERC721Received}, which is called upon   a safe transfer. Emits a {Transfer} event."
      },
      "setApprovalForAll(address,bool)": {
        "details": "Approve or remove `operator` as an operator for the caller. Operators can call {transferFrom} or {safeTransferFrom} for any token owned by the caller. Requirements: - The `operator` cannot be the address zero. Emits an {ApprovalForAll} event."
      },
      "symbol()": {
        "details": "Returns the token collection symbol."
      },
      "tokenByIndex(uint256)": {
        "details": "Returns a token ID at a given `index` of all the tokens stored by the contract. Use along with {totalSupply} to enumerate all tokens."
      },
      "tokenOfOwnerByIndex(address,uint256)": {
        "details": "Returns a token ID owned by `owner` at a given `index` of its token list. Use along with {balanceOf} to enumerate all of ``owner``'s tokens."
      },
      "totalSupply()": {
        "details": "Returns the total amount of tokens stored by the contract."
      },
      "transferFrom(address,address,uint256)": {
        "details": "Transfers `tokenId` token from `from` to `to`. WARNING: Note that the caller is responsible to confirm that the recipient is capable of receiving ERC-721 or else they may be permanently lost. Usage of {safeTransferFrom} prevents loss, though the caller must understand this adds an external call which potentially creates a reentrancy vulnerability. Requirements: - `from` cannot be the zero address. - `to` cannot be the zero address. - `tokenId` token must be owned by `from`. - If the caller is not `from`, it must be approved to move this token by either {approve} or {setApprovalForAll}. Emits a {Transfer} event."
      }
    },
    "version": 1
  },
  "userdoc": {
    "kind": "user",
    "methods": {},
    "version": 1
  }
}