{
  "contractName": "CertificateNFT",
  "abi": [
    {
      "inputs": [
        {
          "internalType": "address",
          "name": "defaultAdmin",
          "type": "address"
        },
        {
          "internalType": "address",
          "name": "minter",
          "type": "address"
        }
      ],
      "stateMutability": "nonpayable",
      "type": "constructor"
    },
    {
      "inputs": [],
      "name": "AccessControlBadConfirmation",
      "type": "error"
    },
    {
      "inputs": [
        {
          "internalType": "address",
          "name": "account",
          "type": "address"
        },
        {
          "internalType": "bytes32",
          "name": "neededRole",
          "type": "bytes32"
        }
      ],
      "name": "AccessControlUnauthorizedAccount",
      "type": "error"
    },
    {
      "inputs": [
        {
          "internalType": "address",
          "name": "sender",
          "type": "address"
        },
        {
          "internalType": "uint256",
          "name": "tokenId",
          "type": "uint256"
        },
        {
          "internalType": "address",
          "name": "owner",
          "type": "address"
        }
      ],
      "name": "ERC721IncorrectOwner",
      "type": "error"
    },
    {
      "inputs": [
        {
          "internalType": "address",
          "name": "operator",
          "type": "address"
        },
        {
          "internalType": "uint256",
          "name": "tokenId",
          "type": "uint256"
        }
      ],
      "name": "ERC721InsufficientApproval",
      "type": "error"
    },
    {
      "inputs": [
        {
          "internalType": "address",
          "name": "approver",
          "type": "address"
        }
      ],
      "name": "ERC721InvalidApprover",
      "type": "error"
    },
    {
      "inputs": [
        {
          "internalType": "address",
          "name": "operator",
          "type": "address"
        }
      ],
      "name": "ERC721InvalidOperator",
      "type": "error"
    },
    {
      "inputs": [
        {
          "internalType": "address",
          "name": "owner",
          "type": "address"
        }
      ],
      "name": "ERC721InvalidOwner",
      "type": "error"
    },
    {
      "inputs": [
        {
          "internalType": "address",
          "name": "receiver",
          "type": "address"
        }
      ],
      "name": "ERC721InvalidReceiver",
      "type": "error"
    },
    {
      "inputs": [
        {
          "internalType": "address",
          "name": "sender",
          "type": "address"
        }
      ],
      "name": "ERC721InvalidSender",
      "type": "error"
    },
    {
      "inputs": [
        {
          "internalType": "uint256",
          "name": "tokenId",
          "type": "uint256"
        }
      ],
      "name": "ERC721NonexistentToken",
      "type": "error"
    },
    {
      "anonymous": false,
      "inputs": [
        {
          "indexed": true,
          "internalType": "address",
          "name": "owner",
          "type": "address"
        },
        {
          "indexed": true,
          "internalType": "address",
          "name": "approved",
          "type": "address"
        },
        {
          "indexed": true,
          "internalType": "uint256",
          "name": "tokenId",
          "type": "uint256"
        }
      ],
      "name": "Approval",
      "type": "event"
    },
    {
      "anonymous": false,
      "inputs": [
        {
          "indexed": true,
          "internalType": "address",
          "name": "owner",
          "type": "address"
        },
        {
          "indexed": true,
          "internalType": "address",
          "name": "operator",
          "type": "address"
        },
        {
          "indexed": false,
          "internalType": "bool",
          "name": "approved",
          "type": "bool"
        }
      ],
      "name": "ApprovalForAll",
      "type": "event"
    },
    {
      "anonymous": false,
      "inputs": [
        {
          "indexed": false,
          "internalType": "uint256",
          "name": "_fromTokenId",
          "type": "uint256"
        },
        {
          "indexed": false,
          "internalType": "uint256",
          "name": "_toTokenId",
          "type": "uint256"
        }
      ],
      "name": "BatchMetadataUpdate",
      "type": "event"
    },
    {
      "anonymous": false,
      "inputs": [
        {
          "indexed": true,
          "internalType": "address",
          "name": "to",
          "type": "address"
        },
        {
          "indexed": false,
          "internalType": "uint256",
          "name": "tokenId",
          "type": "uint256"
        },
        {
          "indexed": false,
          "internalType": "string",
          "name": "dataHash",
          "type": "string"
        }
      ],
      "name": "CertificateMinted",
      "type": "event"
    },
    {
      "anonymous": false,
      "inputs": [
        {
          "indexed": false,
          "internalType": "uint256",
          "name": "_tokenId",
          "type": "uint256"
        }
      ],
      "name": "MetadataUpdate",
      "type": "event"
    },
    {
      "anonymous": false,
      "inputs": [
        {
          "indexed": true,
          "internalType": "bytes32",
          "name": "role",
          "type": "bytes32"
        },
        {
          "indexed": true,
          "internalType": "bytes32",
          "name": "previousAdminRole",
          "type": "bytes32"
        },
        {
          "indexed": true,
          "internalType": "bytes32",
          "name": "newAdminRole",
          "type": "bytes32"
        }
      ],
      "name": "RoleAdminChanged",
      "type": "event"
    },
    {
      "anonymous": false,
      "inputs": [
        {
          "indexed": true,
          "internalType": "bytes32",
          "name": "role",
          "type": "bytes32"
        },
        {
          "indexed": true,
          "internalType": "address",
          "name": "account",
          "type": "address"
        },
        {
          "indexed": true,
          "internalType": "address",
          "name": "sender",
          "type": "address"
        }
      ],
      "name": "RoleGranted",
      "type": "event"
    },
    {
      "anonymous": false,
      "inputs": [
        {
          "indexed": true,
          "internalType": "bytes32",
          "name": "role",
          "type": "bytes32"
        },
        {
          "indexed": true,
          "internalType": "address",
          "name": "account",
          "type": "address"
        },
        {
          "indexed": true,
          "internalType": "address",
          "name": "sender",
          "type": "address"
        }
      ],
      "name": "RoleRevoked",
      "type": "event"
    },
    {
      "anonymous": false,
      "inputs": [
        {
          "indexed": true,
          "internalType": "address",
          "name": "from",
          "type": "address"
        },
        {
          "indexed": true,
          "internalType": "address",
          "name": "to",
          "type": "address"
        },
        {
          "indexed": true,
          "internalType": "uint256",
          "name": "tokenId",
          "type": "uint256"
        }
      ],
      "name": "Transfer",
      "type": "event"
    },
    {
      "inputs": [],
      "name": "DEFAULT_ADMIN_ROLE",
      "outputs": [
        {
          "internalType": "bytes32",
          "name": "",
          "type": "bytes32"
        }
      ],
      "stateMutability": "view",
      "type": "function"
    },
    {
      "inputs": [],
      "name": "MINTER_ROLE",
      "outputs": [
        {
          "internalType": "bytes32",
          "name": "",
          "type": "bytes32"
        }
      ],
      "stateMutability": "view",
      "type": "function"
    },
    {
      "inputs": [
        {
          "internalType": "address",
          "name": "to",
          "type": "address"
        },
        {
          "internalType": "uint256",
          "name": "tokenId",
          "type": "uint256"
        }
      ],
      "name": "approve",
      "outputs": [],
      "stateMutability": "nonpayable",
      "type": "function"
    },
    {
      "inputs": [
        {
          "internalType": "address",
          "name": "owner",
          "type": "address"
        }
      ],
      "name": "balanceOf",
      "outputs": [
        {
          "internalType": "uint256",
          "name": "",
          "type": "uint256"
        }
      ],
      "stateMutability": "view",
      "type": "function"
    },
    {
      "inputs": [
        {
          "internalType": "uint256",
          "name": "tokenId",
          "type": "uint256"
        }
      ],
      "name": "getApproved",
      "outputs": [
        {
          "internalType": "address",
          "name": "",
          "type": "address"
        }
      ],
      "stateMutability": "view",
      "type": "function"
    },
    {
      "inputs": [
        {
          "internalType": "bytes32",
          "name": "role",
          "type": "bytes32"
        }
      ],
      "name": "getRoleAdmin",
      "outputs": [
        {
          "internalType": "bytes32",
          "name": "",
          "type": "bytes32"
        }
      ],
      "stateMutability": "view",
      "type": "function"
    },
    {
      "inputs": [
        {
          "internalType": "bytes32",
          "name": "role",
          "type": "bytes32"
        },
        {
          "internalType": "address",
          "name": "account",
          "type": "address"
        }
      ],
      "name": "grantRole",
      "outputs": [],
      "stateMutability": "nonpayable",
      "type": "function"
    },
    {
      "inputs": [
        {
          "internalType": "bytes32",
          "name": "role",
          "type": "bytes32"
        },
        {
          "internalType": "address",
          "name": "account",
          "type": "address"
        }
      ],
      "name": "hasRole",
      "outputs": [
        {
          "internalType": "bool",
          "name": "",
          "type": "bool"
        }
      ],
      "stateMutability": "view",
      "type": "function"
    },
    {
      "inputs": [
        {
          "internalType": "address",
          "name": "owner",
          "type": "address"
        },
        {
          "internalType": "address",
          "name": "operator",
          "type": "address"
        }
      ],
      "name": "isApprovedForAll",
      "outputs": [
        {
          "internalType": "bool",
          "name": "",
          "type": "bool"
        }
      ],
      "stateMutability": "view",
      "type": "function"
    },
    {
      "inputs": [],
      "name": "name",
      "outputs": [
        {
          "internalType": "string",
          "name": "",
          "type": "string"
        }
      ],
      "stateMutability": "view",
      "type": "function"
    },
    {
      "inputs": [
        {
          "internalType": "uint256",
          "name": "tokenId",
          "type": "uint256"
        }
      ],
      "name": "ownerOf",
      "outputs": [
        {
          "internalType": "address",
          "name": "",
          "type": "address"
        }
      ],
      "stateMutability": "view",
      "type": "function"
    },
    {
      "inputs": [
        {
          "internalType": "bytes32",
          "name": "role",
          "type": "bytes32"
        },
        {
          "internalType": "address",
          "name": "callerConfirmation",
          "type": "address"
        }
      ],
      "name": "renounceRole",
      "outputs": [],
      "stateMutability": "nonpayable",
      "type": "function"
    },
    {
      "inputs": [
        {
          "internalType": "bytes32",
          "name": "role",
          "type": "bytes32"
        },
        {
          "internalType": "address",
          "name": "account",
          "type": "address"
        }
      ],
      "name": "revokeRole",
      "outputs": [],
      "stateMutability": "nonpayable",
      "type": "function"
    },
    {
      "inputs": [
        {
          "internalType": "address",
          "name": "from",
          "type": "address"
        },
        {
          "internalType": "address",
          "name": "to",
          "type": "address"
        },
        {
          "internalType": "uint256",
          "name": "tokenId",
          "type": "uint256"
        }
      ],
      "name": "safeTransferFrom",
      "outputs": [],
      "stateMutability": "nonpayable",
      "type": "function"
    },
    {
      "inputs": [
        {
          "internalType": "address",
          "name": "from",
          "type": "address"
        },
        {
          "internalType": "address",
          "name": "to",
          "type": "address"
        },
        {
          "internalType": "uint256",
          "name": "tokenId",
          "type": "uint256"
        },
        {
          "internalType": "bytes",
          "name": "data",
          "type": "bytes"
        }
      ],
      "name": "safeTransferFrom",
      "outputs": [],
      "stateMutability": "nonpayable",
      "type": "function"
    },
    {
      "inputs": [
        {
          "internalType": "address",
          "name": "operator",
          "type": "address"
        },
        {
          "internalType": "bool",
          "name": "approved",
          "type": "bool"
        }
      ],
      "name": "setApprovalForAll",
      "outputs": [],
      "stateMutability": "nonpayable",
      "type": "function"
    },
    {
      "inputs": [],
      "name": "symbol",
      "outputs": [
        {
          "internalType": "string",
          "name": "",
          "type": "string"
        }
      ],
      "stateMutability": "view",
      "type": "function"
    },
    {
      "inputs": [
        {
          "internalType": "address",
          "name": "from",
          "type": "address"
        },
        {
          "internalType": "address",
          "name": "to",
          "type": "address"
        },
        {
          "internalType": "uint256",
          "name": "tokenId",
          "type": "uint256"
        }
      ],
      "name": "transferFrom",
      "outputs": [],
      "stateMutability": "nonpayable",
      "type": "function"
    },
    {
      "inputs": [
        {
          "internalType": "bytes32",
          "name": "",
          "type": "bytes32"
        }
      ],
      "name": "usedDataHashes",
      "outputs": [
        {
          "internalType": "bool",
          "name": "",
          "type": "bool"
        }
      ],
      "stateMutability": "view",
      "type": "function"
    },
    {
      "inputs": [
        {
          "internalType": "address",
          "name": "to",
          "type": "address"
        },
        {
          "internalType": "string",
          "name": "url",
          "type": "string"
        },
        {
          "internalType": "string",
          "name": "dataHashBytes",
          "type": "string"
        }
      ],
      "name": "mintCertificate",
      "outputs": [],
      "stateMutability": "nonpayable",
      "type": "function"
    },
    {
      "inputs": [
        {
          "internalType": "bytes4",
          "name": "interfaceId",
          "type": "bytes4"
        }
      ],
      "name": "supportsInterface",
      "outputs": [
        {
          "internalType": "bool",
          "name": "",
          "type": "bool"
        }
      ],
      "stateMutability": "view",
      "type": "function"
    },
    {
      "inputs": [
        {
          "internalType": "uint256",
          "name": "tokenId",
          "type": "uint256"
        }
      ],
      "name": "tokenURI",
      "outputs": [
        {
          "internalType": "string",
          "name": "",
          "type": "string"
        }
      ],
      "stateMutability": "view",
      "type": "function"
    }
  ],
  "bytecode": "0x608060405234801562000010575f80fd5b5060405162003284380380620032848339818101604052810190620000369190620002e3565b6040518060400160405280600e81526020017f43657274696669636174654e46540000000000000000000000000000000000008152506040518060400160405280600481526020017f434e465400000000000000000000000000000000000000000000000000000000815250815f9081620000b291906200058c565b508060019081620000c491906200058c565b505050620000db5f801b836200011760201b60201c565b506200010e7f9f2df0fed2c77648de5860a4cc508cd0818c85b8b8a1ab4ceeef8d981c8956a6826200011760201b60201c565b50505062000670565b5f6200012a83836200021360201b60201c565b6200020957600160075f8581526020019081526020015f205f015f8473ffffffffffffffffffffffffffffffffffffffff1673ffffffffffffffffffffffffffffffffffffffff1681526020019081526020015f205f6101000a81548160ff021916908315150217905550620001a56200027760201b60201c565b73ffffffffffffffffffffffffffffffffffffffff168273ffffffffffffffffffffffffffffffffffffffff16847f2f8788117e7eff1d82e926ec794901d17c78024a50270940304540a733656f0d60405160405180910390a4600190506200020d565b5f90505b92915050565b5f60075f8481526020019081526020015f205f015f8373ffffffffffffffffffffffffffffffffffffffff1673ffffffffffffffffffffffffffffffffffffffff1681526020019081526020015f205f9054906101000a900460ff16905092915050565b5f33905090565b5f80fd5b5f73ffffffffffffffffffffffffffffffffffffffff82169050919050565b5f620002ad8262000282565b9050919050565b620002bf81620002a1565b8114620002ca575f80fd5b50565b5f81519050620002dd81620002b4565b92915050565b5f8060408385031215620002fc57620002fb6200027e565b5b5f6200030b85828601620002cd565b92505060206200031e85828601620002cd565b9150509250929050565b5f81519050919050565b7f4e487b71000000000000000000000000000000000000000000000000000000005f52604160045260245ffd5b7f4e487b71000000000000000000000000000000000000000000000000000000005f52602260045260245ffd5b5f6002820490506001821680620003a457607f821691505b602082108103620003ba57620003b96200035f565b5b50919050565b5f819050815f5260205f209050919050565b5f6020601f8301049050919050565b5f82821b905092915050565b5f600883026200041e7fffffffffffffffffffffffffffffffffffffffffffffffffffffffffffffffff82620003e1565b6200042a8683620003e1565b95508019841693508086168417925050509392505050565b5f819050919050565b5f819050919050565b5f620004746200046e620004688462000442565b6200044b565b62000442565b9050919050565b5f819050919050565b6200048f8362000454565b620004a76200049e826200047b565b848454620003ed565b825550505050565b5f90565b620004bd620004af565b620004ca81848462000484565b505050565b5b81811015620004f157620004e55f82620004b3565b600181019050620004d0565b5050565b601f82111562000540576200050a81620003c0565b6200051584620003d2565b8101602085101562000525578190505b6200053d6200053485620003d2565b830182620004cf565b50505b505050565b5f82821c905092915050565b5f620005625f198460080262000545565b1980831691505092915050565b5f6200057c838362000551565b9150826002028217905092915050565b620005978262000328565b67ffffffffffffffff811115620005b357620005b262000332565b5b620005bf82546200038c565b620005cc828285620004f5565b5f60209050601f83116001811462000602575f8415620005ed578287015190505b620005f985826200056f565b86555062000668565b601f1984166200061286620003c0565b5f5b828110156200063b5784890151825560018201915060208501945060208101905062000614565b868310156200065b578489015162000657601f89168262000551565b8355505b6001600288020188555050505b505050505050565b612c06806200067e5f395ff3fe608060405234801561000f575f80fd5b5060043610610140575f3560e01c806370a08231116100b6578063b88d4fde1161007a578063b88d4fde14610382578063c87b56dd1461039e578063cd6906b5146103ce578063d5391393146103fe578063d547741f1461041c578063e985e9c51461043857610140565b806370a08231146102ca57806391d14854146102fa57806395d89b411461032a578063a217fddf14610348578063a22cb4651461036657610140565b8063248a9ca311610108578063248a9ca3146101fa5780632f2ff15d1461022a57806336568abe1461024657806342842e0e146102625780636352211e1461027e5780636b55243d146102ae57610140565b806301ffc9a71461014457806306fdde0314610174578063081812fc14610192578063095ea7b3146101c257806323b872dd146101de575b5f80fd5b61015e60048036038101906101599190611ed4565b610468565b60405161016b9190611f19565b60405180910390f35b61017c610479565b6040516101899190611fbc565b60405180910390f35b6101ac60048036038101906101a7919061200f565b610508565b6040516101b99190612079565b60405180910390f35b6101dc60048036038101906101d791906120bc565b610523565b005b6101f860048036038101906101f391906120fa565b610539565b005b610214600480360381019061020f919061217d565b610638565b60405161022191906121b7565b60405180910390f35b610244600480360381019061023f91906121d0565b610655565b005b610260600480360381019061025b91906121d0565b610677565b005b61027c600480360381019061027791906120fa565b6106f2565b005b6102986004803603810190610293919061200f565b610711565b6040516102a59190612079565b60405180910390f35b6102c860048036038101906102c3919061233a565b610722565b005b6102e460048036038101906102df91906123c2565b610882565b6040516102f191906123fc565b60405180910390f35b610314600480360381019061030f91906121d0565b610938565b6040516103219190611f19565b60405180910390f35b61033261099c565b60405161033f9190611fbc565b60405180910390f35b610350610a2c565b60405161035d91906121b7565b60405180910390f35b610380600480360381019061037b919061243f565b610a32565b005b61039c6004803603810190610397919061251b565b610a48565b005b6103b860048036038101906103b3919061200f565b610a6d565b6040516103c59190611fbc565b60405180910390f35b6103e860048036038101906103e3919061217d565b610a7f565b6040516103f59190611f19565b60405180910390f35b610406610a9c565b60405161041391906121b7565b60405180910390f35b610436600480360381019061043191906121d0565b610ac0565b005b610452600480360381019061044d919061259b565b610ae2565b60405161045f9190611f19565b60405180910390f35b5f61047282610b70565b9050919050565b60605f805461048790612606565b80601f01602080910402602001604051908101604052809291908181526020018280546104b390612606565b80156104fe5780601f106104d5576101008083540402835291602001916104fe565b820191905f5260205f20905b8154815290600101906020018083116104e157829003601f168201915b5050505050905090565b5f61051282610be9565b5061051c82610c6f565b9050919050565b6105358282610530610ca8565b610caf565b5050565b5f73ffffffffffffffffffffffffffffffffffffffff168273ffffffffffffffffffffffffffffffffffffffff16036105a9575f6040517f64a0ae920000000000000000000000000000000000000000000000000000000081526004016105a09190612079565b60405180910390fd5b5f6105bc83836105b7610ca8565b610cc1565b90508373ffffffffffffffffffffffffffffffffffffffff168173ffffffffffffffffffffffffffffffffffffffff1614610632578382826040517f64283d7b00000000000000000000000000000000000000000000000000000000815260040161062993929190612636565b60405180910390fd5b50505050565b5f60075f8381526020019081526020015f20600101549050919050565b61065e82610638565b61066781610ecc565b6106718383610ee0565b50505050565b61067f610ca8565b73ffffffffffffffffffffffffffffffffffffffff168173ffffffffffffffffffffffffffffffffffffffff16146106e3576040517f6697b23200000000000000000000000000000000000000000000000000000000815260040160405180910390fd5b6106ed8282610fca565b505050565b61070c83838360405180602001604052805f815250610a48565b505050565b5f61071b82610be9565b9050919050565b7f9f2df0fed2c77648de5860a4cc508cd0818c85b8b8a1ab4ceeef8d981c8956a661074c81610ecc565b5f8260405160200161075e91906126a5565b60405160208183030381529060405280519060200120905060095f8281526020019081526020015f205f9054906101000a900460ff16156107d4576040517f08c379a00000000000000000000000000000000000000000000000000000000081526004016107cb9061272b565b60405180910390fd5b5f60085f8154809291906107e790612776565b9190505590506107f786826110b4565b61080181866110d1565b600160095f8481526020019081526020015f205f6101000a81548160ff0219169083151502179055508573ffffffffffffffffffffffffffffffffffffffff167fde5d6fd45e32fffb472bcbaeedf6a2e3944633c9701eec7d99adfa07ad6104c182866040516108729291906127bd565b60405180910390a2505050505050565b5f8073ffffffffffffffffffffffffffffffffffffffff168273ffffffffffffffffffffffffffffffffffffffff16036108f3575f6040517f89c62b640000000000000000000000000000000000000000000000000000000081526004016108ea9190612079565b60405180910390fd5b60035f8373ffffffffffffffffffffffffffffffffffffffff1673ffffffffffffffffffffffffffffffffffffffff1681526020019081526020015f20549050919050565b5f60075f8481526020019081526020015f205f015f8373ffffffffffffffffffffffffffffffffffffffff1673ffffffffffffffffffffffffffffffffffffffff1681526020019081526020015f205f9054906101000a900460ff16905092915050565b6060600180546109ab90612606565b80601f01602080910402602001604051908101604052809291908181526020018280546109d790612606565b8015610a225780601f106109f957610100808354040283529160200191610a22565b820191905f5260205f20905b815481529060010190602001808311610a0557829003601f168201915b5050505050905090565b5f801b81565b610a44610a3d610ca8565b838361112b565b5050565b610a53848484610539565b610a67610a5e610ca8565b85858585611294565b50505050565b6060610a7882611440565b9050919050565b6009602052805f5260405f205f915054906101000a900460ff1681565b7f9f2df0fed2c77648de5860a4cc508cd0818c85b8b8a1ab4ceeef8d981c8956a681565b610ac982610638565b610ad281610ecc565b610adc8383610fca565b50505050565b5f60055f8473ffffffffffffffffffffffffffffffffffffffff1673ffffffffffffffffffffffffffffffffffffffff1681526020019081526020015f205f8373ffffffffffffffffffffffffffffffffffffffff1673ffffffffffffffffffffffffffffffffffffffff1681526020019081526020015f205f9054906101000a900460ff16905092915050565b5f7f7965db0b000000000000000000000000000000000000000000000000000000007bffffffffffffffffffffffffffffffffffffffffffffffffffffffff1916827bffffffffffffffffffffffffffffffffffffffffffffffffffffffff19161480610be25750610be18261154b565b5b9050919050565b5f80610bf4836115ab565b90505f73ffffffffffffffffffffffffffffffffffffffff168173ffffffffffffffffffffffffffffffffffffffff1603610c6657826040517f7e273289000000000000000000000000000000000000000000000000000000008152600401610c5d91906123fc565b60405180910390fd5b80915050919050565b5f60045f8381526020019081526020015f205f9054906101000a900473ffffffffffffffffffffffffffffffffffffffff169050919050565b5f33905090565b610cbc83838360016115e4565b505050565b5f80610ccc846115ab565b90505f73ffffffffffffffffffffffffffffffffffffffff168373ffffffffffffffffffffffffffffffffffffffff1614610d0d57610d0c8184866117a3565b5b5f73ffffffffffffffffffffffffffffffffffffffff168173ffffffffffffffffffffffffffffffffffffffff1614610d9857610d4c5f855f806115e4565b600160035f8373ffffffffffffffffffffffffffffffffffffffff1673ffffffffffffffffffffffffffffffffffffffff1681526020019081526020015f205f82825403925050819055505b5f73ffffffffffffffffffffffffffffffffffffffff168573ffffffffffffffffffffffffffffffffffffffff1614610e1757600160035f8773ffffffffffffffffffffffffffffffffffffffff1673ffffffffffffffffffffffffffffffffffffffff1681526020019081526020015f205f82825401925050819055505b8460025f8681526020019081526020015f205f6101000a81548173ffffffffffffffffffffffffffffffffffffffff021916908373ffffffffffffffffffffffffffffffffffffffff160217905550838573ffffffffffffffffffffffffffffffffffffffff168273ffffffffffffffffffffffffffffffffffffffff167fddf252ad1be2c89b69c2b068fc378daa952ba7f163c4a11628f55a4df523b3ef60405160405180910390a4809150509392505050565b610edd81610ed8610ca8565b611866565b50565b5f610eeb8383610938565b610fc057600160075f8581526020019081526020015f205f015f8473ffffffffffffffffffffffffffffffffffffffff1673ffffffffffffffffffffffffffffffffffffffff1681526020019081526020015f205f6101000a81548160ff021916908315150217905550610f5d610ca8565b73ffffffffffffffffffffffffffffffffffffffff168273ffffffffffffffffffffffffffffffffffffffff16847f2f8788117e7eff1d82e926ec794901d17c78024a50270940304540a733656f0d60405160405180910390a460019050610fc4565b5f90505b92915050565b5f610fd58383610938565b156110aa575f60075f8581526020019081526020015f205f015f8473ffffffffffffffffffffffffffffffffffffffff1673ffffffffffffffffffffffffffffffffffffffff1681526020019081526020015f205f6101000a81548160ff021916908315150217905550611047610ca8565b73ffffffffffffffffffffffffffffffffffffffff168273ffffffffffffffffffffffffffffffffffffffff16847ff6391f5c32d9c69d2a47ea670b442974b53935d1edc7fd64eb21e047a839171b60405160405180910390a4600190506110ae565b5f90505b92915050565b6110cd828260405180602001604052805f8152506118b7565b5050565b8060065f8481526020019081526020015f2090816110ef9190612988565b507ff8e1a15aba9398e019f0b49df1a4fde98ee17ae345cb5f6b5e2c27f5033e8ce78260405161111f91906123fc565b60405180910390a15050565b5f73ffffffffffffffffffffffffffffffffffffffff168273ffffffffffffffffffffffffffffffffffffffff160361119b57816040517f5b08ba180000000000000000000000000000000000000000000000000000000081526004016111929190612079565b60405180910390fd5b8060055f8573ffffffffffffffffffffffffffffffffffffffff1673ffffffffffffffffffffffffffffffffffffffff1681526020019081526020015f205f8473ffffffffffffffffffffffffffffffffffffffff1673ffffffffffffffffffffffffffffffffffffffff1681526020019081526020015f205f6101000a81548160ff0219169083151502179055508173ffffffffffffffffffffffffffffffffffffffff168373ffffffffffffffffffffffffffffffffffffffff167f17307eab39ab6107e8899845ad3d59bd9653f200f220920489ca2b5937696c31836040516112879190611f19565b60405180910390a3505050565b5f8373ffffffffffffffffffffffffffffffffffffffff163b1115611439578273ffffffffffffffffffffffffffffffffffffffff1663150b7a02868685856040518563ffffffff1660e01b81526004016112f29493929190612aa9565b6020604051808303815f875af192505050801561132d57506040513d601f19601f8201168201806040525081019061132a9190612b07565b60015b6113ae573d805f811461135b576040519150601f19603f3d011682016040523d82523d5f602084013e611360565b606091505b505f8151036113a657836040517f64a0ae9200000000000000000000000000000000000000000000000000000000815260040161139d9190612079565b60405180910390fd5b805160208201fd5b63150b7a0260e01b7bffffffffffffffffffffffffffffffffffffffffffffffffffffffff1916817bffffffffffffffffffffffffffffffffffffffffffffffffffffffff19161461143757836040517f64a0ae9200000000000000000000000000000000000000000000000000000000815260040161142e9190612079565b60405180910390fd5b505b5050505050565b606061144b82610be9565b505f60065f8481526020019081526020015f20805461146990612606565b80601f016020809104026020016040519081016040528092919081815260200182805461149590612606565b80156114e05780601f106114b7576101008083540402835291602001916114e0565b820191905f5260205f20905b8154815290600101906020018083116114c357829003601f168201915b505050505090505f6114f06118da565b90505f815103611504578192505050611546565b5f82511115611538578082604051602001611520929190612b32565b60405160208183030381529060405292505050611546565b611541846118f0565b925050505b919050565b5f634906490660e01b7bffffffffffffffffffffffffffffffffffffffffffffffffffffffff1916827bffffffffffffffffffffffffffffffffffffffffffffffffffffffff191614806115a457506115a382611956565b5b9050919050565b5f60025f8381526020019081526020015f205f9054906101000a900473ffffffffffffffffffffffffffffffffffffffff169050919050565b808061161c57505f73ffffffffffffffffffffffffffffffffffffffff168273ffffffffffffffffffffffffffffffffffffffff1614155b1561174e575f61162b84610be9565b90505f73ffffffffffffffffffffffffffffffffffffffff168373ffffffffffffffffffffffffffffffffffffffff161415801561169557508273ffffffffffffffffffffffffffffffffffffffff168173ffffffffffffffffffffffffffffffffffffffff1614155b80156116a857506116a68184610ae2565b155b156116ea57826040517fa9fbf51f0000000000000000000000000000000000000000000000000000000081526004016116e19190612079565b60405180910390fd5b811561174c57838573ffffffffffffffffffffffffffffffffffffffff168273ffffffffffffffffffffffffffffffffffffffff167f8c5be1e5ebec7d5bd14f71427d1e84f3dd0314c0f7b2291e5b200ac8c7c3b92560405160405180910390a45b505b8360045f8581526020019081526020015f205f6101000a81548173ffffffffffffffffffffffffffffffffffffffff021916908373ffffffffffffffffffffffffffffffffffffffff16021790555050505050565b6117ae838383611a37565b611861575f73ffffffffffffffffffffffffffffffffffffffff168373ffffffffffffffffffffffffffffffffffffffff160361182257806040517f7e27328900000000000000000000000000000000000000000000000000000000815260040161181991906123fc565b60405180910390fd5b81816040517f177e802f000000000000000000000000000000000000000000000000000000008152600401611858929190612b55565b60405180910390fd5b505050565b6118708282610938565b6118b35780826040517fe2517d3f0000000000000000000000000000000000000000000000000000000081526004016118aa929190612b7c565b60405180910390fd5b5050565b6118c18383611af7565b6118d56118cc610ca8565b5f858585611294565b505050565b606060405180602001604052805f815250905090565b60606118fb82610be9565b505f6119056118da565b90505f8151116119235760405180602001604052805f81525061194e565b8061192d84611bea565b60405160200161193e929190612b32565b6040516020818303038152906040525b915050919050565b5f7f80ac58cd000000000000000000000000000000000000000000000000000000007bffffffffffffffffffffffffffffffffffffffffffffffffffffffff1916827bffffffffffffffffffffffffffffffffffffffffffffffffffffffff19161480611a2057507f5b5e139f000000000000000000000000000000000000000000000000000000007bffffffffffffffffffffffffffffffffffffffffffffffffffffffff1916827bffffffffffffffffffffffffffffffffffffffffffffffffffffffff1916145b80611a305750611a2f82611cb4565b5b9050919050565b5f8073ffffffffffffffffffffffffffffffffffffffff168373ffffffffffffffffffffffffffffffffffffffff1614158015611aee57508273ffffffffffffffffffffffffffffffffffffffff168473ffffffffffffffffffffffffffffffffffffffff161480611aaf5750611aae8484610ae2565b5b80611aed57508273ffffffffffffffffffffffffffffffffffffffff16611ad583610c6f565b73ffffffffffffffffffffffffffffffffffffffff16145b5b90509392505050565b5f73ffffffffffffffffffffffffffffffffffffffff168273ffffffffffffffffffffffffffffffffffffffff1603611b67575f6040517f64a0ae92000000000000000000000000000000000000000000000000000000008152600401611b5e9190612079565b60405180910390fd5b5f611b7383835f610cc1565b90505f73ffffffffffffffffffffffffffffffffffffffff168173ffffffffffffffffffffffffffffffffffffffff1614611be5575f6040517f73c6ac6e000000000000000000000000000000000000000000000000000000008152600401611bdc9190612079565b60405180910390fd5b505050565b60605f6001611bf884611d1d565b0190505f8167ffffffffffffffff811115611c1657611c15612216565b5b6040519080825280601f01601f191660200182016040528015611c485781602001600182028036833780820191505090505b5090505f82602083010190505b600115611ca9578080600190039150507f3031323334353637383961626364656600000000000000000000000000000000600a86061a8153600a8581611c9e57611c9d612ba3565b5b0494505f8503611c55575b819350505050919050565b5f7f01ffc9a7000000000000000000000000000000000000000000000000000000007bffffffffffffffffffffffffffffffffffffffffffffffffffffffff1916827bffffffffffffffffffffffffffffffffffffffffffffffffffffffff1916149050919050565b5f805f90507a184f03e93ff9f4daa797ed6e38ed64bf6a1f0100000000000000008310611d79577a184f03e93ff9f4daa797ed6e38ed64bf6a1f0100000000000000008381611d6f57611d6e612ba3565b5b0492506040810190505b6d04ee2d6d415b85acef81000000008310611db6576d04ee2d6d415b85acef81000000008381611dac57611dab612ba3565b5b0492506020810190505b662386f26fc100008310611de557662386f26fc100008381611ddb57611dda612ba3565b5b0492506010810190505b6305f5e1008310611e0e576305f5e1008381611e0457611e03612ba3565b5b0492506008810190505b6127108310611e33576127108381611e2957611e28612ba3565b5b0492506004810190505b60648310611e565760648381611e4c57611e4b612ba3565b5b0492506002810190505b600a8310611e65576001810190505b80915050919050565b5f604051905090565b5f80fd5b5f80fd5b5f7fffffffff0000000000000000000000000000000000000000000000000000000082169050919050565b611eb381611e7f565b8114611ebd575f80fd5b50565b5f81359050611ece81611eaa565b92915050565b5f60208284031215611ee957611ee8611e77565b5b5f611ef684828501611ec0565b91505092915050565b5f8115159050919050565b611f1381611eff565b82525050565b5f602082019050611f2c5f830184611f0a565b92915050565b5f81519050919050565b5f82825260208201905092915050565b5f5b83811015611f69578082015181840152602081019050611f4e565b5f8484015250505050565b5f601f19601f8301169050919050565b5f611f8e82611f32565b611f988185611f3c565b9350611fa8818560208601611f4c565b611fb181611f74565b840191505092915050565b5f6020820190508181035f830152611fd48184611f84565b905092915050565b5f819050919050565b611fee81611fdc565b8114611ff8575f80fd5b50565b5f8135905061200981611fe5565b92915050565b5f6020828403121561202457612023611e77565b5b5f61203184828501611ffb565b91505092915050565b5f73ffffffffffffffffffffffffffffffffffffffff82169050919050565b5f6120638261203a565b9050919050565b61207381612059565b82525050565b5f60208201905061208c5f83018461206a565b92915050565b61209b81612059565b81146120a5575f80fd5b50565b5f813590506120b681612092565b92915050565b5f80604083850312156120d2576120d1611e77565b5b5f6120df858286016120a8565b92505060206120f085828601611ffb565b9150509250929050565b5f805f6060848603121561211157612110611e77565b5b5f61211e868287016120a8565b935050602061212f868287016120a8565b925050604061214086828701611ffb565b9150509250925092565b5f819050919050565b61215c8161214a565b8114612166575f80fd5b50565b5f8135905061217781612153565b92915050565b5f6020828403121561219257612191611e77565b5b5f61219f84828501612169565b91505092915050565b6121b18161214a565b82525050565b5f6020820190506121ca5f8301846121a8565b92915050565b5f80604083850312156121e6576121e5611e77565b5b5f6121f385828601612169565b9250506020612204858286016120a8565b9150509250929050565b5f80fd5b5f80fd5b7f4e487b71000000000000000000000000000000000000000000000000000000005f52604160045260245ffd5b61224c82611f74565b810181811067ffffffffffffffff8211171561226b5761226a612216565b5b80604052505050565b5f61227d611e6e565b90506122898282612243565b919050565b5f67ffffffffffffffff8211156122a8576122a7612216565b5b6122b182611f74565b9050602081019050919050565b828183375f83830152505050565b5f6122de6122d98461228e565b612274565b9050828152602081018484840111156122fa576122f9612212565b5b6123058482856122be565b509392505050565b5f82601f8301126123215761232061220e565b5b81356123318482602086016122cc565b91505092915050565b5f805f6060848603121561235157612350611e77565b5b5f61235e868287016120a8565b935050602084013567ffffffffffffffff81111561237f5761237e611e7b565b5b61238b8682870161230d565b925050604084013567ffffffffffffffff8111156123ac576123ab611e7b565b5b6123b88682870161230d565b9150509250925092565b5f602082840312156123d7576123d6611e77565b5b5f6123e4848285016120a8565b91505092915050565b6123f681611fdc565b82525050565b5f60208201905061240f5f8301846123ed565b92915050565b61241e81611eff565b8114612428575f80fd5b50565b5f8135905061243981612415565b92915050565b5f806040838503121561245557612454611e77565b5b5f612462858286016120a8565b92505060206124738582860161242b565b9150509250929050565b5f67ffffffffffffffff82111561249757612496612216565b5b6124a082611f74565b9050602081019050919050565b5f6124bf6124ba8461247d565b612274565b9050828152602081018484840111156124db576124da612212565b5b6124e68482856122be565b509392505050565b5f82601f8301126125025761250161220e565b5b81356125128482602086016124ad565b91505092915050565b5f805f806080858703121561253357612532611e77565b5b5f612540878288016120a8565b9450506020612551878288016120a8565b935050604061256287828801611ffb565b925050606085013567ffffffffffffffff81111561258357612582611e7b565b5b61258f878288016124ee565b91505092959194509250565b5f80604083850312156125b1576125b0611e77565b5b5f6125be858286016120a8565b92505060206125cf858286016120a8565b9150509250929050565b7f4e487b71000000000000000000000000000000000000000000000000000000005f52602260045260245ffd5b5f600282049050600182168061261d57607f821691505b6020821081036126305761262f6125d9565b5b50919050565b5f6060820190506126495f83018661206a565b61265660208301856123ed565b612663604083018461206a565b949350505050565b5f81905092915050565b5f61267f82611f32565b612689818561266b565b9350612699818560208601611f4c565b80840191505092915050565b5f6126b08284612675565b915081905092915050565b7f4475206c696575206e61792064612064756f63206361702043657274696669635f8201527f6174650000000000000000000000000000000000000000000000000000000000602082015250565b5f612715602383611f3c565b9150612720826126bb565b604082019050919050565b5f6020820190508181035f83015261274281612709565b9050919050565b7f4e487b71000000000000000000000000000000000000000000000000000000005f52601160045260245ffd5b5f61278082611fdc565b91507fffffffffffffffffffffffffffffffffffffffffffffffffffffffffffffffff82036127b2576127b1612749565b5b600182019050919050565b5f6040820190506127d05f8301856123ed565b81810360208301526127e28184611f84565b90509392505050565b5f819050815f5260205f209050919050565b5f6020601f8301049050919050565b5f82821b905092915050565b5f600883026128477fffffffffffffffffffffffffffffffffffffffffffffffffffffffffffffffff8261280c565b612851868361280c565b95508019841693508086168417925050509392505050565b5f819050919050565b5f61288c61288761288284611fdc565b612869565b611fdc565b9050919050565b5f819050919050565b6128a583612872565b6128b96128b182612893565b848454612818565b825550505050565b5f90565b6128cd6128c1565b6128d881848461289c565b505050565b5b818110156128fb576128f05f826128c5565b6001810190506128de565b5050565b601f82111561294057612911816127eb565b61291a846127fd565b81016020851015612929578190505b61293d612935856127fd565b8301826128dd565b50505b505050565b5f82821c905092915050565b5f6129605f1984600802612945565b1980831691505092915050565b5f6129788383612951565b9150826002028217905092915050565b61299182611f32565b67ffffffffffffffff8111156129aa576129a9612216565b5b6129b48254612606565b6129bf8282856128ff565b5f60209050601f8311600181146129f0575f84156129de578287015190505b6129e8858261296d565b865550612a4f565b601f1984166129fe866127eb565b5f5b82811015612a2557848901518255600182019150602085019450602081019050612a00565b86831015612a425784890151612a3e601f891682612951565b8355505b6001600288020188555050505b505050505050565b5f81519050919050565b5f82825260208201905092915050565b5f612a7b82612a57565b612a858185612a61565b9350612a95818560208601611f4c565b612a9e81611f74565b840191505092915050565b5f608082019050612abc5f83018761206a565b612ac9602083018661206a565b612ad660408301856123ed565b8181036060830152612ae88184612a71565b905095945050505050565b5f81519050612b0181611eaa565b92915050565b5f60208284031215612b1c57612b1b611e77565b5b5f612b2984828501612af3565b91505092915050565b5f612b3d8285612675565b9150612b498284612675565b91508190509392505050565b5f604082019050612b685f83018561206a565b612b7560208301846123ed565b9392505050565b5f604082019050612b8f5f83018561206a565b612b9c60208301846121a8565b9392505050565b7f4e487b71000000000000000000000000000000000000000000000000000000005f52601260045260245ffdfea2646970667358221220f9de3dd8738bdf250fab84d720a635c1862bc4bd4bd73dd39c1b78a6815b17a564736f6c63430008180033",
  "immutableReferences": {},
  "source": "// SPDX-License-Identifier: MIT\r\npragma solidity ^0.8.20;\r\n\r\nimport \"@openzeppelin/contracts/token/ERC721/ERC721.sol\";\r\nimport \"@openzeppelin/contracts/token/ERC721/extensions/ERC721URIStorage.sol\";\r\nimport \"@openzeppelin/contracts/access/AccessControl.sol\";\r\n\r\ncontract CertificateNFT is ERC721, ERC721URIStorage, AccessControl {\r\n    // nh ngha vai tr MINTER (dnh cho Backend Server)\r\n    bytes32 public constant MINTER_ROLE = keccak256(\"MINTER_ROLE\");\r\n    \r\n    uint256 private _nextTokenId;\r\n\r\n    // Mapping  kim tra xem mt hash d liu thc t  c mint cha (trnh mint trng lp)\r\n    mapping(bytes32 => bool) public usedDataHashes;\r\n\r\n    event CertificateMinted(address indexed to, uint256 tokenId, string dataHash);\r\n\r\n    constructor(address defaultAdmin, address minter) ERC721(\"CertificateNFT\", \"CNFT\") {\r\n        // Cp quyn Admin cho a ch trin khai (hoc a ch ch nh)\r\n        _grantRole(DEFAULT_ADMIN_ROLE, defaultAdmin);\r\n        // Cp quyn Minter cho v ca Backend Server\r\n        _grantRole(MINTER_ROLE, minter);\r\n    }\r\n\r\n    /**\r\n     * @dev Hm Mint (Ch v c quyn MINTER_ROLE mi gi c)\r\n     * @param to a ch v ca User nhn NFT\r\n     * @param url Metadata URL (IPFS link)\r\n     * @param dataHashBytes Hash ca d liu gc (SHA256)  m bo tnh ton vn v duy nht\r\n     */\r\n    function mintCertificate(address to, string memory url, string memory dataHashBytes) public onlyRole(MINTER_ROLE) {\r\n        // Chuyn string hash sang bytes32  so snh (ty chn logic)\r\n        bytes32 hash = keccak256(abi.encodePacked(dataHashBytes));\r\n        \r\n        require(!usedDataHashes[hash], \"Du lieu nay da duoc cap Certificate\");\r\n\r\n        uint256 tokenId = _nextTokenId++;\r\n        \r\n        _safeMint(to, tokenId);\r\n        _setTokenURI(tokenId, url);\r\n        \r\n        // nh du hash ny  dng\r\n        usedDataHashes[hash] = true;\r\n\r\n        emit CertificateMinted(to, tokenId, dataHashBytes);\r\n    }\r\n\r\n    // Cc hm override bt buc ca Solidity khi dng AccessControl v ERC721\r\n    function supportsInterface(bytes4 interfaceId)\r\n        public\r\n        view\r\n        override(ERC721, ERC721URIStorage, AccessControl)\r\n        returns (bool)\r\n    {\r\n        return super.supportsInterface(interfaceId);\r\n    }\r\n\r\n    function tokenURI(uint256 tokenId)\r\n        public\r\n        view\r\n        override(ERC721, ERC721URIStorage)\r\n        returns (string memory)\r\n    {\r\n        return super.tokenURI(tokenId);\r\n    }\r\n}",
  "sourcePath": "D:\\Lets-Make-Your-NFTs\\Lets-Make-Your-NFTs\\contracts\\CertificateNFT.sol",
  "compiler": {
    "name": "solc",
    "version": "0.8.24+commit.e11b9ed9.Emscripten.clang"
  },
  "schemaVersion": "3.4.16",
  "updatedAt": "2025-11-24T14:30:27.244Z",
  "devdoc": {
    "errors": {
      "AccessControlBadConfirmation()": [
        {
          "details": "The caller of a function is not the expected one. NOTE: Don't confuse with {AccessControlUnauthorizedAccount}."
        }
      ],
      "AccessControlUnauthorizedAccount(address,bytes32)": [
        {
          "details": "The `account` is missing a role."
        }
      ],
      "ERC721IncorrectOwner(address,uint256,address)": [
        {
          "details": "Indicates an error related to the ownership over a particular token. Used in transfers.",
          "params": {
            "owner": "Address of the current owner of a token.",
            "sender": "Address whose tokens are being transferred.",
            "tokenId": "Identifier number of a token."
          }
        }
      ],
      "ERC721InsufficientApproval(address,uint256)": [
        {
          "details": "Indicates a failure with the `operator`s approval. Used in transfers.",
          "params": {
            "operator": "Address that may be allowed to operate on tokens without being their owner.",
            "tokenId": "Identifier number of a token."
          }
        }
      ],
      "ERC721InvalidApprover(address)": [
        {
          "details": "Indicates a failure with the `approver` of a token to be approved. Used in approvals.",
          "params": {
            "approver": "Address initiating an approval operation."
          }
        }
      ],
      "ERC721InvalidOperator(address)": [
        {
          "details": "Indicates a failure with the `operator` to be approved. Used in approvals.",
          "params": {
            "operator": "Address that may be allowed to operate on tokens without being their owner."
          }
        }
      ],
      "ERC721InvalidOwner(address)": [
        {
          "details": "Indicates that an address can't be an owner. For example, `address(0)` is a forbidden owner in ERC-20. Used in balance queries.",
          "params": {
            "owner": "Address of the current owner of a token."
          }
        }
      ],
      "ERC721InvalidReceiver(address)": [
        {
          "details": "Indicates a failure with the token `receiver`. Used in transfers.",
          "params": {
            "receiver": "Address to which tokens are being transferred."
          }
        }
      ],
      "ERC721InvalidSender(address)": [
        {
          "details": "Indicates a failure with the token `sender`. Used in transfers.",
          "params": {
            "sender": "Address whose tokens are being transferred."
          }
        }
      ],
      "ERC721NonexistentToken(uint256)": [
        {
          "details": "Indicates a `tokenId` whose `owner` is the zero address.",
          "params": {
            "tokenId": "Identifier number of a token."
          }
        }
      ]
    },
    "events": {
      "Approval(address,address,uint256)": {
        "details": "Emitted when `owner` enables `approved` to manage the `tokenId` token."
      },
      "ApprovalForAll(address,address,bool)": {
        "details": "Emitted when `owner` enables or disables (`approved`) `operator` to manage all of its assets."
      },
      "BatchMetadataUpdate(uint256,uint256)": {
        "details": "This event emits when the metadata of a range of tokens is changed. So that the third-party platforms such as NFT market could timely update the images and related attributes of the NFTs."
      },
      "MetadataUpdate(uint256)": {
        "details": "This event emits when the metadata of a token is changed. So that the third-party platforms such as NFT market could timely update the images and related attributes of the NFT."
      },
      "RoleAdminChanged(bytes32,bytes32,bytes32)": {
        "details": "Emitted when `newAdminRole` is set as ``role``'s admin role, replacing `previousAdminRole` `DEFAULT_ADMIN_ROLE` is the starting admin for all roles, despite {RoleAdminChanged} not being emitted to signal this."
      },
      "RoleGranted(bytes32,address,address)": {
        "details": "Emitted when `account` is granted `role`. `sender` is the account that originated the contract call. This account bears the admin role (for the granted role). Expected in cases where the role was granted using the internal {AccessControl-_grantRole}."
      },
      "RoleRevoked(bytes32,address,address)": {
        "details": "Emitted when `account` is revoked `role`. `sender` is the account that originated the contract call:   - if using `revokeRole`, it is the admin role bearer   - if using `renounceRole`, it is the role bearer (i.e. `account`)"
      },
      "Transfer(address,address,uint256)": {
        "details": "Emitted when `tokenId` token is transferred from `from` to `to`."
      }
    },
    "kind": "dev",
    "methods": {
      "approve(address,uint256)": {
        "details": "Gives permission to `to` to transfer `tokenId` token to another account. The approval is cleared when the token is transferred. Only a single account can be approved at a time, so approving the zero address clears previous approvals. Requirements: - The caller must own the token or be an approved operator. - `tokenId` must exist. Emits an {Approval} event."
      },
      "balanceOf(address)": {
        "details": "Returns the number of tokens in ``owner``'s account."
      },
      "getApproved(uint256)": {
        "details": "Returns the account approved for `tokenId` token. Requirements: - `tokenId` must exist."
      },
      "getRoleAdmin(bytes32)": {
        "details": "Returns the admin role that controls `role`. See {grantRole} and {revokeRole}. To change a role's admin, use {_setRoleAdmin}."
      },
      "grantRole(bytes32,address)": {
        "details": "Grants `role` to `account`. If `account` had not been already granted `role`, emits a {RoleGranted} event. Requirements: - the caller must have ``role``'s admin role. May emit a {RoleGranted} event."
      },
      "hasRole(bytes32,address)": {
        "details": "Returns `true` if `account` has been granted `role`."
      },
      "isApprovedForAll(address,address)": {
        "details": "Returns if the `operator` is allowed to manage all of the assets of `owner`. See {setApprovalForAll}"
      },
      "mintCertificate(address,string,string)": {
        "details": "Hm Mint (Ch v c quyn MINTER_ROLE mi gi c)",
        "params": {
          "dataHashBytes": "Hash ca d liu gc (SHA256)  m bo tnh ton vn v duy nht",
          "to": "a ch v ca User nhn NFT",
          "url": "Metadata URL (IPFS link)"
        }
      },
      "name()": {
        "details": "Returns the token collection name."
      },
      "ownerOf(uint256)": {
        "details": "Returns the owner of the `tokenId` token. Requirements: - `tokenId` must exist."
      },
      "renounceRole(bytes32,address)": {
        "details": "Revokes `role` from the calling account. Roles are often managed via {grantRole} and {revokeRole}: this function's purpose is to provide a mechanism for accounts to lose their privileges if they are compromised (such as when a trusted device is misplaced). If the calling account had been revoked `role`, emits a {RoleRevoked} event. Requirements: - the caller must be `callerConfirmation`. May emit a {RoleRevoked} event."
      },
      "revokeRole(bytes32,address)": {
        "details": "Revokes `role` from `account`. If `account` had been granted `role`, emits a {RoleRevoked} event. Requirements: - the caller must have ``role``'s admin role. May emit a {RoleRevoked} event."
      },
      "safeTransferFrom(address,address,uint256)": {
        "details": "Safely transfers `tokenId` token from `from` to `to`, checking first that contract recipients are aware of the ERC-721 protocol to prevent tokens from being forever locked. Requirements: - `from` cannot be the zero address. - `to` cannot be the zero address. - `tokenId` token must exist and be owned by `from`. - If the caller is not `from`, it must have been allowed to move this token by either {approve} or   {setApprovalForAll}. - If `to` refers to a smart contract, it must implement {IERC721Receiver-onERC721Received}, which is called upon   a safe transfer. Emits a {Transfer} event."
      },
      "safeTransferFrom(address,address,uint256,bytes)": {
        "details": "Safely transfers `tokenId` token from `from` to `to`. Requirements: - `from` cannot be the zero address. - `to` cannot be the zero address. - `tokenId` token must exist and be owned by `from`. - If the caller is not `from`, it must be approved to move this token by either {approve} or {setApprovalForAll}. - If `to` refers to a smart contract, it must implement {IERC721Receiver-onERC721Received}, which is called upon   a safe transfer. Emits a {Transfer} event."
      },
      "setApprovalForAll(address,bool)": {
        "details": "Approve or remove `operator` as an operator for the caller. Operators can call {transferFrom} or {safeTransferFrom} for any token owned by the caller. Requirements: - The `operator` cannot be the address zero. Emits an {ApprovalForAll} event."
      },
      "symbol()": {
        "details": "Returns the token collection symbol."
      },
      "transferFrom(address,address,uint256)": {
        "details": "Transfers `tokenId` token from `from` to `to`. WARNING: Note that the caller is responsible to confirm that the recipient is capable of receiving ERC-721 or else they may be permanently lost. Usage of {safeTransferFrom} prevents loss, though the caller must understand this adds an external call which potentially creates a reentrancy vulnerability. Requirements: - `from` cannot be the zero address. - `to` cannot be the zero address. - `tokenId` token must be owned by `from`. - If the caller is not `from`, it must be approved to move this token by either {approve} or {setApprovalForAll}. Emits a {Transfer} event."
      }
    },
    "version": 1
  },
  "userdoc": {
    "kind": "user",
    "methods": {},
    "version": 1
  }
}