{
  "contractName": "MyNFT",
  "abi": [
    {
      "inputs": [
        {
          "internalType": "string",
          "name": "name",
          "type": "string"
        },
        {
          "internalType": "string",
          "name": "symbol",
          "type": "string"
        },
        {
          "internalType": "address",
          "name": "initialOwner",
          "type": "address"
        }
      ],
      "stateMutability": "nonpayable",
      "type": "constructor"
    },
    {
      "inputs": [
        {
          "internalType": "address",
          "name": "sender",
          "type": "address"
        },
        {
          "internalType": "uint256",
          "name": "tokenId",
          "type": "uint256"
        },
        {
          "internalType": "address",
          "name": "owner",
          "type": "address"
        }
      ],
      "name": "ERC721IncorrectOwner",
      "type": "error"
    },
    {
      "inputs": [
        {
          "internalType": "address",
          "name": "operator",
          "type": "address"
        },
        {
          "internalType": "uint256",
          "name": "tokenId",
          "type": "uint256"
        }
      ],
      "name": "ERC721InsufficientApproval",
      "type": "error"
    },
    {
      "inputs": [
        {
          "internalType": "address",
          "name": "approver",
          "type": "address"
        }
      ],
      "name": "ERC721InvalidApprover",
      "type": "error"
    },
    {
      "inputs": [
        {
          "internalType": "address",
          "name": "operator",
          "type": "address"
        }
      ],
      "name": "ERC721InvalidOperator",
      "type": "error"
    },
    {
      "inputs": [
        {
          "internalType": "address",
          "name": "owner",
          "type": "address"
        }
      ],
      "name": "ERC721InvalidOwner",
      "type": "error"
    },
    {
      "inputs": [
        {
          "internalType": "address",
          "name": "receiver",
          "type": "address"
        }
      ],
      "name": "ERC721InvalidReceiver",
      "type": "error"
    },
    {
      "inputs": [
        {
          "internalType": "address",
          "name": "sender",
          "type": "address"
        }
      ],
      "name": "ERC721InvalidSender",
      "type": "error"
    },
    {
      "inputs": [
        {
          "internalType": "uint256",
          "name": "tokenId",
          "type": "uint256"
        }
      ],
      "name": "ERC721NonexistentToken",
      "type": "error"
    },
    {
      "inputs": [
        {
          "internalType": "address",
          "name": "owner",
          "type": "address"
        }
      ],
      "name": "OwnableInvalidOwner",
      "type": "error"
    },
    {
      "inputs": [
        {
          "internalType": "address",
          "name": "account",
          "type": "address"
        }
      ],
      "name": "OwnableUnauthorizedAccount",
      "type": "error"
    },
    {
      "anonymous": false,
      "inputs": [
        {
          "indexed": true,
          "internalType": "address",
          "name": "owner",
          "type": "address"
        },
        {
          "indexed": true,
          "internalType": "address",
          "name": "approved",
          "type": "address"
        },
        {
          "indexed": true,
          "internalType": "uint256",
          "name": "tokenId",
          "type": "uint256"
        }
      ],
      "name": "Approval",
      "type": "event"
    },
    {
      "anonymous": false,
      "inputs": [
        {
          "indexed": true,
          "internalType": "address",
          "name": "owner",
          "type": "address"
        },
        {
          "indexed": true,
          "internalType": "address",
          "name": "operator",
          "type": "address"
        },
        {
          "indexed": false,
          "internalType": "bool",
          "name": "approved",
          "type": "bool"
        }
      ],
      "name": "ApprovalForAll",
      "type": "event"
    },
    {
      "anonymous": false,
      "inputs": [
        {
          "indexed": false,
          "internalType": "uint256",
          "name": "_fromTokenId",
          "type": "uint256"
        },
        {
          "indexed": false,
          "internalType": "uint256",
          "name": "_toTokenId",
          "type": "uint256"
        }
      ],
      "name": "BatchMetadataUpdate",
      "type": "event"
    },
    {
      "anonymous": false,
      "inputs": [
        {
          "indexed": false,
          "internalType": "uint256",
          "name": "_tokenId",
          "type": "uint256"
        }
      ],
      "name": "MetadataUpdate",
      "type": "event"
    },
    {
      "anonymous": false,
      "inputs": [
        {
          "indexed": true,
          "internalType": "address",
          "name": "previousOwner",
          "type": "address"
        },
        {
          "indexed": true,
          "internalType": "address",
          "name": "newOwner",
          "type": "address"
        }
      ],
      "name": "OwnershipTransferred",
      "type": "event"
    },
    {
      "anonymous": false,
      "inputs": [
        {
          "indexed": true,
          "internalType": "address",
          "name": "from",
          "type": "address"
        },
        {
          "indexed": true,
          "internalType": "address",
          "name": "to",
          "type": "address"
        },
        {
          "indexed": true,
          "internalType": "uint256",
          "name": "tokenId",
          "type": "uint256"
        }
      ],
      "name": "Transfer",
      "type": "event"
    },
    {
      "inputs": [
        {
          "internalType": "address",
          "name": "to",
          "type": "address"
        },
        {
          "internalType": "uint256",
          "name": "tokenId",
          "type": "uint256"
        }
      ],
      "name": "approve",
      "outputs": [],
      "stateMutability": "nonpayable",
      "type": "function"
    },
    {
      "inputs": [
        {
          "internalType": "address",
          "name": "owner",
          "type": "address"
        }
      ],
      "name": "balanceOf",
      "outputs": [
        {
          "internalType": "uint256",
          "name": "",
          "type": "uint256"
        }
      ],
      "stateMutability": "view",
      "type": "function"
    },
    {
      "inputs": [
        {
          "internalType": "uint256",
          "name": "tokenId",
          "type": "uint256"
        }
      ],
      "name": "getApproved",
      "outputs": [
        {
          "internalType": "address",
          "name": "",
          "type": "address"
        }
      ],
      "stateMutability": "view",
      "type": "function"
    },
    {
      "inputs": [
        {
          "internalType": "address",
          "name": "owner",
          "type": "address"
        },
        {
          "internalType": "address",
          "name": "operator",
          "type": "address"
        }
      ],
      "name": "isApprovedForAll",
      "outputs": [
        {
          "internalType": "bool",
          "name": "",
          "type": "bool"
        }
      ],
      "stateMutability": "view",
      "type": "function"
    },
    {
      "inputs": [],
      "name": "name",
      "outputs": [
        {
          "internalType": "string",
          "name": "",
          "type": "string"
        }
      ],
      "stateMutability": "view",
      "type": "function"
    },
    {
      "inputs": [],
      "name": "owner",
      "outputs": [
        {
          "internalType": "address",
          "name": "",
          "type": "address"
        }
      ],
      "stateMutability": "view",
      "type": "function"
    },
    {
      "inputs": [
        {
          "internalType": "uint256",
          "name": "tokenId",
          "type": "uint256"
        }
      ],
      "name": "ownerOf",
      "outputs": [
        {
          "internalType": "address",
          "name": "",
          "type": "address"
        }
      ],
      "stateMutability": "view",
      "type": "function"
    },
    {
      "inputs": [],
      "name": "renounceOwnership",
      "outputs": [],
      "stateMutability": "nonpayable",
      "type": "function"
    },
    {
      "inputs": [
        {
          "internalType": "address",
          "name": "from",
          "type": "address"
        },
        {
          "internalType": "address",
          "name": "to",
          "type": "address"
        },
        {
          "internalType": "uint256",
          "name": "tokenId",
          "type": "uint256"
        }
      ],
      "name": "safeTransferFrom",
      "outputs": [],
      "stateMutability": "nonpayable",
      "type": "function"
    },
    {
      "inputs": [
        {
          "internalType": "address",
          "name": "from",
          "type": "address"
        },
        {
          "internalType": "address",
          "name": "to",
          "type": "address"
        },
        {
          "internalType": "uint256",
          "name": "tokenId",
          "type": "uint256"
        },
        {
          "internalType": "bytes",
          "name": "data",
          "type": "bytes"
        }
      ],
      "name": "safeTransferFrom",
      "outputs": [],
      "stateMutability": "nonpayable",
      "type": "function"
    },
    {
      "inputs": [
        {
          "internalType": "address",
          "name": "operator",
          "type": "address"
        },
        {
          "internalType": "bool",
          "name": "approved",
          "type": "bool"
        }
      ],
      "name": "setApprovalForAll",
      "outputs": [],
      "stateMutability": "nonpayable",
      "type": "function"
    },
    {
      "inputs": [
        {
          "internalType": "bytes4",
          "name": "interfaceId",
          "type": "bytes4"
        }
      ],
      "name": "supportsInterface",
      "outputs": [
        {
          "internalType": "bool",
          "name": "",
          "type": "bool"
        }
      ],
      "stateMutability": "view",
      "type": "function"
    },
    {
      "inputs": [],
      "name": "symbol",
      "outputs": [
        {
          "internalType": "string",
          "name": "",
          "type": "string"
        }
      ],
      "stateMutability": "view",
      "type": "function"
    },
    {
      "inputs": [
        {
          "internalType": "uint256",
          "name": "tokenId",
          "type": "uint256"
        }
      ],
      "name": "tokenURI",
      "outputs": [
        {
          "internalType": "string",
          "name": "",
          "type": "string"
        }
      ],
      "stateMutability": "view",
      "type": "function"
    },
    {
      "inputs": [
        {
          "internalType": "address",
          "name": "from",
          "type": "address"
        },
        {
          "internalType": "address",
          "name": "to",
          "type": "address"
        },
        {
          "internalType": "uint256",
          "name": "tokenId",
          "type": "uint256"
        }
      ],
      "name": "transferFrom",
      "outputs": [],
      "stateMutability": "nonpayable",
      "type": "function"
    },
    {
      "inputs": [
        {
          "internalType": "address",
          "name": "newOwner",
          "type": "address"
        }
      ],
      "name": "transferOwnership",
      "outputs": [],
      "stateMutability": "nonpayable",
      "type": "function"
    },
    {
      "inputs": [
        {
          "internalType": "address",
          "name": "to",
          "type": "address"
        },
        {
          "internalType": "string",
          "name": "uri",
          "type": "string"
        }
      ],
      "name": "safeMint",
      "outputs": [],
      "stateMutability": "nonpayable",
      "type": "function"
    },
    {
      "inputs": [
        {
          "internalType": "uint256",
          "name": "tokenId",
          "type": "uint256"
        },
        {
          "internalType": "string",
          "name": "uri",
          "type": "string"
        }
      ],
      "name": "updateTokenURI",
      "outputs": [],
      "stateMutability": "nonpayable",
      "type": "function"
    }
  ],
  "bytecode": "0x608060405234801562000010575f80fd5b5060405162002dab38038062002dab833981810160405281019062000036919062000395565b808383815f908162000049919062000663565b5080600190816200005b919062000663565b5050505f73ffffffffffffffffffffffffffffffffffffffff168173ffffffffffffffffffffffffffffffffffffffff1603620000d1575f6040517f1e4fbdf7000000000000000000000000000000000000000000000000000000008152600401620000c8919062000758565b60405180910390fd5b620000e281620000ec60201b60201c565b5050505062000773565b5f60075f9054906101000a900473ffffffffffffffffffffffffffffffffffffffff1690508160075f6101000a81548173ffffffffffffffffffffffffffffffffffffffff021916908373ffffffffffffffffffffffffffffffffffffffff1602179055508173ffffffffffffffffffffffffffffffffffffffff168173ffffffffffffffffffffffffffffffffffffffff167f8be0079c531659141344cd1fd0a4f28419497f9722a3daafe3b4186f6b6457e060405160405180910390a35050565b5f604051905090565b5f80fd5b5f80fd5b5f80fd5b5f80fd5b5f601f19601f8301169050919050565b7f4e487b71000000000000000000000000000000000000000000000000000000005f52604160045260245ffd5b6200021082620001c8565b810181811067ffffffffffffffff82111715620002325762000231620001d8565b5b80604052505050565b5f62000246620001af565b905062000254828262000205565b919050565b5f67ffffffffffffffff821115620002765762000275620001d8565b5b6200028182620001c8565b9050602081019050919050565b5f5b83811015620002ad57808201518184015260208101905062000290565b5f8484015250505050565b5f620002ce620002c88462000259565b6200023b565b905082815260208101848484011115620002ed57620002ec620001c4565b5b620002fa8482856200028e565b509392505050565b5f82601f830112620003195762000318620001c0565b5b81516200032b848260208601620002b8565b91505092915050565b5f73ffffffffffffffffffffffffffffffffffffffff82169050919050565b5f6200035f8262000334565b9050919050565b620003718162000353565b81146200037c575f80fd5b50565b5f815190506200038f8162000366565b92915050565b5f805f60608486031215620003af57620003ae620001b8565b5b5f84015167ffffffffffffffff811115620003cf57620003ce620001bc565b5b620003dd8682870162000302565b935050602084015167ffffffffffffffff811115620004015762000400620001bc565b5b6200040f8682870162000302565b925050604062000422868287016200037f565b9150509250925092565b5f81519050919050565b7f4e487b71000000000000000000000000000000000000000000000000000000005f52602260045260245ffd5b5f60028204905060018216806200047b57607f821691505b60208210810362000491576200049062000436565b5b50919050565b5f819050815f5260205f209050919050565b5f6020601f8301049050919050565b5f82821b905092915050565b5f60088302620004f57fffffffffffffffffffffffffffffffffffffffffffffffffffffffffffffffff82620004b8565b620005018683620004b8565b95508019841693508086168417925050509392505050565b5f819050919050565b5f819050919050565b5f6200054b620005456200053f8462000519565b62000522565b62000519565b9050919050565b5f819050919050565b62000566836200052b565b6200057e620005758262000552565b848454620004c4565b825550505050565b5f90565b6200059462000586565b620005a18184846200055b565b505050565b5b81811015620005c857620005bc5f826200058a565b600181019050620005a7565b5050565b601f8211156200061757620005e18162000497565b620005ec84620004a9565b81016020851015620005fc578190505b620006146200060b85620004a9565b830182620005a6565b50505b505050565b5f82821c905092915050565b5f620006395f19846008026200061c565b1980831691505092915050565b5f62000653838362000628565b9150826002028217905092915050565b6200066e826200042c565b67ffffffffffffffff8111156200068a5762000689620001d8565b5b62000696825462000463565b620006a3828285620005cc565b5f60209050601f831160018114620006d9575f8415620006c4578287015190505b620006d0858262000646565b8655506200073f565b601f198416620006e98662000497565b5f5b828110156200071257848901518255600182019150602085019450602081019050620006eb565b868310156200073257848901516200072e601f89168262000628565b8355505b6001600288020188555050505b505050505050565b620007528162000353565b82525050565b5f6020820190506200076d5f83018462000747565b92915050565b61262a80620007815f395ff3fe608060405234801561000f575f80fd5b5060043610610114575f3560e01c8063715018a6116100a0578063b88d4fde1161006f578063b88d4fde146102c8578063c87b56dd146102e4578063d204c45e14610314578063e985e9c514610330578063f2fde38b1461036057610114565b8063715018a6146102665780638da5cb5b1461027057806395d89b411461028e578063a22cb465146102ac57610114565b806318e97fd1116100e757806318e97fd1146101b257806323b872dd146101ce57806342842e0e146101ea5780636352211e1461020657806370a082311461023657610114565b806301ffc9a71461011857806306fdde0314610148578063081812fc14610166578063095ea7b314610196575b5f80fd5b610132600480360381019061012d9190611a89565b61037c565b60405161013f9190611ace565b60405180910390f35b6101506103dc565b60405161015d9190611b71565b60405180910390f35b610180600480360381019061017b9190611bc4565b61046b565b60405161018d9190611c2e565b60405180910390f35b6101b060048036038101906101ab9190611c71565b610486565b005b6101cc60048036038101906101c79190611ddb565b61049c565b005b6101e860048036038101906101e39190611e35565b6104b2565b005b61020460048036038101906101ff9190611e35565b6105b1565b005b610220600480360381019061021b9190611bc4565b6105d0565b60405161022d9190611c2e565b60405180910390f35b610250600480360381019061024b9190611e85565b6105e1565b60405161025d9190611ebf565b60405180910390f35b61026e610697565b005b6102786106aa565b6040516102859190611c2e565b60405180910390f35b6102966106d2565b6040516102a39190611b71565b60405180910390f35b6102c660048036038101906102c19190611f02565b610762565b005b6102e260048036038101906102dd9190611fde565b610778565b005b6102fe60048036038101906102f99190611bc4565b61079d565b60405161030b9190611b71565b60405180910390f35b61032e6004803603810190610329919061205e565b6108a8565b005b61034a600480360381019061034591906120b8565b6108e6565b6040516103579190611ace565b60405180910390f35b61037a60048036038101906103759190611e85565b610974565b005b5f634906490660e01b7bffffffffffffffffffffffffffffffffffffffffffffffffffffffff1916827bffffffffffffffffffffffffffffffffffffffffffffffffffffffff191614806103d557506103d4826109f8565b5b9050919050565b60605f80546103ea90612123565b80601f016020809104026020016040519081016040528092919081815260200182805461041690612123565b80156104615780601f1061043857610100808354040283529160200191610461565b820191905f5260205f20905b81548152906001019060200180831161044457829003601f168201915b5050505050905090565b5f61047582610ad9565b5061047f82610b5f565b9050919050565b6104988282610493610b98565b610b9f565b5050565b6104a4610bb1565b6104ae8282610c38565b5050565b5f73ffffffffffffffffffffffffffffffffffffffff168273ffffffffffffffffffffffffffffffffffffffff1603610522575f6040517f64a0ae920000000000000000000000000000000000000000000000000000000081526004016105199190611c2e565b60405180910390fd5b5f6105358383610530610b98565b610c92565b90508373ffffffffffffffffffffffffffffffffffffffff168173ffffffffffffffffffffffffffffffffffffffff16146105ab578382826040517f64283d7b0000000000000000000000000000000000000000000000000000000081526004016105a293929190612153565b60405180910390fd5b50505050565b6105cb83838360405180602001604052805f815250610778565b505050565b5f6105da82610ad9565b9050919050565b5f8073ffffffffffffffffffffffffffffffffffffffff168273ffffffffffffffffffffffffffffffffffffffff1603610652575f6040517f89c62b640000000000000000000000000000000000000000000000000000000081526004016106499190611c2e565b60405180910390fd5b60035f8373ffffffffffffffffffffffffffffffffffffffff1673ffffffffffffffffffffffffffffffffffffffff1681526020019081526020015f20549050919050565b61069f610bb1565b6106a85f610e9d565b565b5f60075f9054906101000a900473ffffffffffffffffffffffffffffffffffffffff16905090565b6060600180546106e190612123565b80601f016020809104026020016040519081016040528092919081815260200182805461070d90612123565b80156107585780601f1061072f57610100808354040283529160200191610758565b820191905f5260205f20905b81548152906001019060200180831161073b57829003601f168201915b5050505050905090565b61077461076d610b98565b8383610f60565b5050565b6107838484846104b2565b61079761078e610b98565b858585856110c9565b50505050565b60606107a882610ad9565b505f60065f8481526020019081526020015f2080546107c690612123565b80601f01602080910402602001604051908101604052809291908181526020018280546107f290612123565b801561083d5780601f106108145761010080835404028352916020019161083d565b820191905f5260205f20905b81548152906001019060200180831161082057829003601f168201915b505050505090505f61084d611275565b90505f8151036108615781925050506108a3565b5f8251111561089557808260405160200161087d9291906121c2565b604051602081830303815290604052925050506108a3565b61089e8461128b565b925050505b919050565b6108b0610bb1565b5f600854905060085f8154809291906108c890612212565b91905055506108d783826112f1565b6108e18183610c38565b505050565b5f60055f8473ffffffffffffffffffffffffffffffffffffffff1673ffffffffffffffffffffffffffffffffffffffff1681526020019081526020015f205f8373ffffffffffffffffffffffffffffffffffffffff1673ffffffffffffffffffffffffffffffffffffffff1681526020019081526020015f205f9054906101000a900460ff16905092915050565b61097c610bb1565b5f73ffffffffffffffffffffffffffffffffffffffff168173ffffffffffffffffffffffffffffffffffffffff16036109ec575f6040517f1e4fbdf70000000000000000000000000000000000000000000000000000000081526004016109e39190611c2e565b60405180910390fd5b6109f581610e9d565b50565b5f7f80ac58cd000000000000000000000000000000000000000000000000000000007bffffffffffffffffffffffffffffffffffffffffffffffffffffffff1916827bffffffffffffffffffffffffffffffffffffffffffffffffffffffff19161480610ac257507f5b5e139f000000000000000000000000000000000000000000000000000000007bffffffffffffffffffffffffffffffffffffffffffffffffffffffff1916827bffffffffffffffffffffffffffffffffffffffffffffffffffffffff1916145b80610ad25750610ad18261130e565b5b9050919050565b5f80610ae483611377565b90505f73ffffffffffffffffffffffffffffffffffffffff168173ffffffffffffffffffffffffffffffffffffffff1603610b5657826040517f7e273289000000000000000000000000000000000000000000000000000000008152600401610b4d9190611ebf565b60405180910390fd5b80915050919050565b5f60045f8381526020019081526020015f205f9054906101000a900473ffffffffffffffffffffffffffffffffffffffff169050919050565b5f33905090565b610bac83838360016113b0565b505050565b610bb9610b98565b73ffffffffffffffffffffffffffffffffffffffff16610bd76106aa565b73ffffffffffffffffffffffffffffffffffffffff1614610c3657610bfa610b98565b6040517f118cdaa7000000000000000000000000000000000000000000000000000000008152600401610c2d9190611c2e565b60405180910390fd5b565b8060065f8481526020019081526020015f209081610c5691906123f6565b507ff8e1a15aba9398e019f0b49df1a4fde98ee17ae345cb5f6b5e2c27f5033e8ce782604051610c869190611ebf565b60405180910390a15050565b5f80610c9d84611377565b90505f73ffffffffffffffffffffffffffffffffffffffff168373ffffffffffffffffffffffffffffffffffffffff1614610cde57610cdd81848661156f565b5b5f73ffffffffffffffffffffffffffffffffffffffff168173ffffffffffffffffffffffffffffffffffffffff1614610d6957610d1d5f855f806113b0565b600160035f8373ffffffffffffffffffffffffffffffffffffffff1673ffffffffffffffffffffffffffffffffffffffff1681526020019081526020015f205f82825403925050819055505b5f73ffffffffffffffffffffffffffffffffffffffff168573ffffffffffffffffffffffffffffffffffffffff1614610de857600160035f8773ffffffffffffffffffffffffffffffffffffffff1673ffffffffffffffffffffffffffffffffffffffff1681526020019081526020015f205f82825401925050819055505b8460025f8681526020019081526020015f205f6101000a81548173ffffffffffffffffffffffffffffffffffffffff021916908373ffffffffffffffffffffffffffffffffffffffff160217905550838573ffffffffffffffffffffffffffffffffffffffff168273ffffffffffffffffffffffffffffffffffffffff167fddf252ad1be2c89b69c2b068fc378daa952ba7f163c4a11628f55a4df523b3ef60405160405180910390a4809150509392505050565b5f60075f9054906101000a900473ffffffffffffffffffffffffffffffffffffffff1690508160075f6101000a81548173ffffffffffffffffffffffffffffffffffffffff021916908373ffffffffffffffffffffffffffffffffffffffff1602179055508173ffffffffffffffffffffffffffffffffffffffff168173ffffffffffffffffffffffffffffffffffffffff167f8be0079c531659141344cd1fd0a4f28419497f9722a3daafe3b4186f6b6457e060405160405180910390a35050565b5f73ffffffffffffffffffffffffffffffffffffffff168273ffffffffffffffffffffffffffffffffffffffff1603610fd057816040517f5b08ba18000000000000000000000000000000000000000000000000000000008152600401610fc79190611c2e565b60405180910390fd5b8060055f8573ffffffffffffffffffffffffffffffffffffffff1673ffffffffffffffffffffffffffffffffffffffff1681526020019081526020015f205f8473ffffffffffffffffffffffffffffffffffffffff1673ffffffffffffffffffffffffffffffffffffffff1681526020019081526020015f205f6101000a81548160ff0219169083151502179055508173ffffffffffffffffffffffffffffffffffffffff168373ffffffffffffffffffffffffffffffffffffffff167f17307eab39ab6107e8899845ad3d59bd9653f200f220920489ca2b5937696c31836040516110bc9190611ace565b60405180910390a3505050565b5f8373ffffffffffffffffffffffffffffffffffffffff163b111561126e578273ffffffffffffffffffffffffffffffffffffffff1663150b7a02868685856040518563ffffffff1660e01b81526004016111279493929190612517565b6020604051808303815f875af192505050801561116257506040513d601f19601f8201168201806040525081019061115f9190612575565b60015b6111e3573d805f8114611190576040519150601f19603f3d011682016040523d82523d5f602084013e611195565b606091505b505f8151036111db57836040517f64a0ae920000000000000000000000000000000000000000000000000000000081526004016111d29190611c2e565b60405180910390fd5b805160208201fd5b63150b7a0260e01b7bffffffffffffffffffffffffffffffffffffffffffffffffffffffff1916817bffffffffffffffffffffffffffffffffffffffffffffffffffffffff19161461126c57836040517f64a0ae920000000000000000000000000000000000000000000000000000000081526004016112639190611c2e565b60405180910390fd5b505b5050505050565b606060405180602001604052805f815250905090565b606061129682610ad9565b505f6112a0611275565b90505f8151116112be5760405180602001604052805f8152506112e9565b806112c884611632565b6040516020016112d99291906121c2565b6040516020818303038152906040525b915050919050565b61130a828260405180602001604052805f8152506116fc565b5050565b5f7f01ffc9a7000000000000000000000000000000000000000000000000000000007bffffffffffffffffffffffffffffffffffffffffffffffffffffffff1916827bffffffffffffffffffffffffffffffffffffffffffffffffffffffff1916149050919050565b5f60025f8381526020019081526020015f205f9054906101000a900473ffffffffffffffffffffffffffffffffffffffff169050919050565b80806113e857505f73ffffffffffffffffffffffffffffffffffffffff168273ffffffffffffffffffffffffffffffffffffffff1614155b1561151a575f6113f784610ad9565b90505f73ffffffffffffffffffffffffffffffffffffffff168373ffffffffffffffffffffffffffffffffffffffff161415801561146157508273ffffffffffffffffffffffffffffffffffffffff168173ffffffffffffffffffffffffffffffffffffffff1614155b8015611474575061147281846108e6565b155b156114b657826040517fa9fbf51f0000000000000000000000000000000000000000000000000000000081526004016114ad9190611c2e565b60405180910390fd5b811561151857838573ffffffffffffffffffffffffffffffffffffffff168273ffffffffffffffffffffffffffffffffffffffff167f8c5be1e5ebec7d5bd14f71427d1e84f3dd0314c0f7b2291e5b200ac8c7c3b92560405160405180910390a45b505b8360045f8581526020019081526020015f205f6101000a81548173ffffffffffffffffffffffffffffffffffffffff021916908373ffffffffffffffffffffffffffffffffffffffff16021790555050505050565b61157a83838361171f565b61162d575f73ffffffffffffffffffffffffffffffffffffffff168373ffffffffffffffffffffffffffffffffffffffff16036115ee57806040517f7e2732890000000000000000000000000000000000000000000000000000000081526004016115e59190611ebf565b60405180910390fd5b81816040517f177e802f0000000000000000000000000000000000000000000000000000000081526004016116249291906125a0565b60405180910390fd5b505050565b60605f6001611640846117df565b0190505f8167ffffffffffffffff81111561165e5761165d611cb7565b5b6040519080825280601f01601f1916602001820160405280156116905781602001600182028036833780820191505090505b5090505f82602083010190505b6001156116f1578080600190039150507f3031323334353637383961626364656600000000000000000000000000000000600a86061a8153600a85816116e6576116e56125c7565b5b0494505f850361169d575b819350505050919050565b6117068383611930565b61171a611711610b98565b5f8585856110c9565b505050565b5f8073ffffffffffffffffffffffffffffffffffffffff168373ffffffffffffffffffffffffffffffffffffffff16141580156117d657508273ffffffffffffffffffffffffffffffffffffffff168473ffffffffffffffffffffffffffffffffffffffff161480611797575061179684846108e6565b5b806117d557508273ffffffffffffffffffffffffffffffffffffffff166117bd83610b5f565b73ffffffffffffffffffffffffffffffffffffffff16145b5b90509392505050565b5f805f90507a184f03e93ff9f4daa797ed6e38ed64bf6a1f010000000000000000831061183b577a184f03e93ff9f4daa797ed6e38ed64bf6a1f0100000000000000008381611831576118306125c7565b5b0492506040810190505b6d04ee2d6d415b85acef81000000008310611878576d04ee2d6d415b85acef8100000000838161186e5761186d6125c7565b5b0492506020810190505b662386f26fc1000083106118a757662386f26fc10000838161189d5761189c6125c7565b5b0492506010810190505b6305f5e10083106118d0576305f5e10083816118c6576118c56125c7565b5b0492506008810190505b61271083106118f55761271083816118eb576118ea6125c7565b5b0492506004810190505b60648310611918576064838161190e5761190d6125c7565b5b0492506002810190505b600a8310611927576001810190505b80915050919050565b5f73ffffffffffffffffffffffffffffffffffffffff168273ffffffffffffffffffffffffffffffffffffffff16036119a0575f6040517f64a0ae920000000000000000000000000000000000000000000000000000000081526004016119979190611c2e565b60405180910390fd5b5f6119ac83835f610c92565b90505f73ffffffffffffffffffffffffffffffffffffffff168173ffffffffffffffffffffffffffffffffffffffff1614611a1e575f6040517f73c6ac6e000000000000000000000000000000000000000000000000000000008152600401611a159190611c2e565b60405180910390fd5b505050565b5f604051905090565b5f80fd5b5f80fd5b5f7fffffffff0000000000000000000000000000000000000000000000000000000082169050919050565b611a6881611a34565b8114611a72575f80fd5b50565b5f81359050611a8381611a5f565b92915050565b5f60208284031215611a9e57611a9d611a2c565b5b5f611aab84828501611a75565b91505092915050565b5f8115159050919050565b611ac881611ab4565b82525050565b5f602082019050611ae15f830184611abf565b92915050565b5f81519050919050565b5f82825260208201905092915050565b5f5b83811015611b1e578082015181840152602081019050611b03565b5f8484015250505050565b5f601f19601f8301169050919050565b5f611b4382611ae7565b611b4d8185611af1565b9350611b5d818560208601611b01565b611b6681611b29565b840191505092915050565b5f6020820190508181035f830152611b898184611b39565b905092915050565b5f819050919050565b611ba381611b91565b8114611bad575f80fd5b50565b5f81359050611bbe81611b9a565b92915050565b5f60208284031215611bd957611bd8611a2c565b5b5f611be684828501611bb0565b91505092915050565b5f73ffffffffffffffffffffffffffffffffffffffff82169050919050565b5f611c1882611bef565b9050919050565b611c2881611c0e565b82525050565b5f602082019050611c415f830184611c1f565b92915050565b611c5081611c0e565b8114611c5a575f80fd5b50565b5f81359050611c6b81611c47565b92915050565b5f8060408385031215611c8757611c86611a2c565b5b5f611c9485828601611c5d565b9250506020611ca585828601611bb0565b9150509250929050565b5f80fd5b5f80fd5b7f4e487b71000000000000000000000000000000000000000000000000000000005f52604160045260245ffd5b611ced82611b29565b810181811067ffffffffffffffff82111715611d0c57611d0b611cb7565b5b80604052505050565b5f611d1e611a23565b9050611d2a8282611ce4565b919050565b5f67ffffffffffffffff821115611d4957611d48611cb7565b5b611d5282611b29565b9050602081019050919050565b828183375f83830152505050565b5f611d7f611d7a84611d2f565b611d15565b905082815260208101848484011115611d9b57611d9a611cb3565b5b611da6848285611d5f565b509392505050565b5f82601f830112611dc257611dc1611caf565b5b8135611dd2848260208601611d6d565b91505092915050565b5f8060408385031215611df157611df0611a2c565b5b5f611dfe85828601611bb0565b925050602083013567ffffffffffffffff811115611e1f57611e1e611a30565b5b611e2b85828601611dae565b9150509250929050565b5f805f60608486031215611e4c57611e4b611a2c565b5b5f611e5986828701611c5d565b9350506020611e6a86828701611c5d565b9250506040611e7b86828701611bb0565b9150509250925092565b5f60208284031215611e9a57611e99611a2c565b5b5f611ea784828501611c5d565b91505092915050565b611eb981611b91565b82525050565b5f602082019050611ed25f830184611eb0565b92915050565b611ee181611ab4565b8114611eeb575f80fd5b50565b5f81359050611efc81611ed8565b92915050565b5f8060408385031215611f1857611f17611a2c565b5b5f611f2585828601611c5d565b9250506020611f3685828601611eee565b9150509250929050565b5f67ffffffffffffffff821115611f5a57611f59611cb7565b5b611f6382611b29565b9050602081019050919050565b5f611f82611f7d84611f40565b611d15565b905082815260208101848484011115611f9e57611f9d611cb3565b5b611fa9848285611d5f565b509392505050565b5f82601f830112611fc557611fc4611caf565b5b8135611fd5848260208601611f70565b91505092915050565b5f805f8060808587031215611ff657611ff5611a2c565b5b5f61200387828801611c5d565b945050602061201487828801611c5d565b935050604061202587828801611bb0565b925050606085013567ffffffffffffffff81111561204657612045611a30565b5b61205287828801611fb1565b91505092959194509250565b5f806040838503121561207457612073611a2c565b5b5f61208185828601611c5d565b925050602083013567ffffffffffffffff8111156120a2576120a1611a30565b5b6120ae85828601611dae565b9150509250929050565b5f80604083850312156120ce576120cd611a2c565b5b5f6120db85828601611c5d565b92505060206120ec85828601611c5d565b9150509250929050565b7f4e487b71000000000000000000000000000000000000000000000000000000005f52602260045260245ffd5b5f600282049050600182168061213a57607f821691505b60208210810361214d5761214c6120f6565b5b50919050565b5f6060820190506121665f830186611c1f565b6121736020830185611eb0565b6121806040830184611c1f565b949350505050565b5f81905092915050565b5f61219c82611ae7565b6121a68185612188565b93506121b6818560208601611b01565b80840191505092915050565b5f6121cd8285612192565b91506121d98284612192565b91508190509392505050565b7f4e487b71000000000000000000000000000000000000000000000000000000005f52601160045260245ffd5b5f61221c82611b91565b91507fffffffffffffffffffffffffffffffffffffffffffffffffffffffffffffffff820361224e5761224d6121e5565b5b600182019050919050565b5f819050815f5260205f209050919050565b5f6020601f8301049050919050565b5f82821b905092915050565b5f600883026122b57fffffffffffffffffffffffffffffffffffffffffffffffffffffffffffffffff8261227a565b6122bf868361227a565b95508019841693508086168417925050509392505050565b5f819050919050565b5f6122fa6122f56122f084611b91565b6122d7565b611b91565b9050919050565b5f819050919050565b612313836122e0565b61232761231f82612301565b848454612286565b825550505050565b5f90565b61233b61232f565b61234681848461230a565b505050565b5b818110156123695761235e5f82612333565b60018101905061234c565b5050565b601f8211156123ae5761237f81612259565b6123888461226b565b81016020851015612397578190505b6123ab6123a38561226b565b83018261234b565b50505b505050565b5f82821c905092915050565b5f6123ce5f19846008026123b3565b1980831691505092915050565b5f6123e683836123bf565b9150826002028217905092915050565b6123ff82611ae7565b67ffffffffffffffff81111561241857612417611cb7565b5b6124228254612123565b61242d82828561236d565b5f60209050601f83116001811461245e575f841561244c578287015190505b61245685826123db565b8655506124bd565b601f19841661246c86612259565b5f5b828110156124935784890151825560018201915060208501945060208101905061246e565b868310156124b057848901516124ac601f8916826123bf565b8355505b6001600288020188555050505b505050505050565b5f81519050919050565b5f82825260208201905092915050565b5f6124e9826124c5565b6124f381856124cf565b9350612503818560208601611b01565b61250c81611b29565b840191505092915050565b5f60808201905061252a5f830187611c1f565b6125376020830186611c1f565b6125446040830185611eb0565b818103606083015261255681846124df565b905095945050505050565b5f8151905061256f81611a5f565b92915050565b5f6020828403121561258a57612589611a2c565b5b5f61259784828501612561565b91505092915050565b5f6040820190506125b35f830185611c1f565b6125c06020830184611eb0565b9392505050565b7f4e487b71000000000000000000000000000000000000000000000000000000005f52601260045260245ffdfea2646970667358221220dbdfe3b58248f5d1f6c8dffa8d71ad8672aa6e62055159784f1774831f0cdf5564736f6c63430008180033",
  "immutableReferences": {},
  "source": "// SPDX-License-Identifier: MIT\r\npragma solidity ^0.8.20; // Yu cu phin bn 0.8.20 tr ln\r\n\r\n// Import cc hp ng OpenZeppelin v5\r\nimport \"@openzeppelin/contracts/token/ERC721/extensions/ERC721URIStorage.sol\";\r\nimport \"@openzeppelin/contracts/access/Ownable.sol\";\r\n\r\n// ERC721URIStorage  bao gm ERC721 v cc chc nng qun l metadata\r\ncontract MyNFT is ERC721URIStorage, Ownable {\r\n\r\n    // Thay th cho Counters.sol:\r\n    // Chng ta t theo di token ID tip theo.\r\n    // Thng bt u t 0 hoc 1 ty theo s thch.\r\n    uint256 private _nextTokenId;\r\n\r\n    /**\r\n     * @dev Constructor\r\n     * @param name Tn ca b su tp NFT\r\n     * @param symbol K hiu ca b su tp NFT\r\n     * @param initialOwner a ch v s l ch s hu (Owner) ca hp ng\r\n     */\r\n    constructor(\r\n        string memory name, \r\n        string memory symbol, \r\n        address initialOwner // Bt buc trong OZ v5\r\n    ) \r\n        ERC721(name, symbol)\r\n        Ownable(initialOwner) // Phi truyn initialOwner vo y\r\n    {}\r\n\r\n    /**\r\n     * @dev Hm Mint (ch ch s hu c gi)\r\n     * @param to a ch v nhn NFT\r\n     * @param uri ng dn (IPFS) n file metadata (JSON)\r\n     */\r\n    function safeMint(address to, string memory uri) public onlyOwner {\r\n        // Ly ID tip theo t bin _nextTokenId\r\n        uint256 newItemId = _nextTokenId;\r\n        \r\n        // Tng bin m ln 1 cho ln mint tip theo\r\n        _nextTokenId++;\r\n\r\n        // Mint NFT\r\n        _safeMint(to, newItemId);\r\n        \r\n        // t URI cho NFT va mint\r\n        _setTokenURI(newItemId, uri);\r\n    }\r\n\r\n    // Hm ny cho php Owner (hoc logic khc) cp nht URI sau khi mint\r\n    function updateTokenURI(uint256 tokenId, string memory uri) public onlyOwner {\r\n        _setTokenURI(tokenId, uri);\r\n    }\r\n}",
  "sourcePath": "D:\\Lets-Make-Your-NFTs\\Lets-Make-Your-NFTs\\contracts\\MyNFT.sol",
  "compiler": {
    "name": "solc",
    "version": "0.8.24+commit.e11b9ed9.Emscripten.clang"
  },
  "schemaVersion": "3.4.16",
  "updatedAt": "2025-11-24T14:30:27.255Z",
  "devdoc": {
    "errors": {
      "ERC721IncorrectOwner(address,uint256,address)": [
        {
          "details": "Indicates an error related to the ownership over a particular token. Used in transfers.",
          "params": {
            "owner": "Address of the current owner of a token.",
            "sender": "Address whose tokens are being transferred.",
            "tokenId": "Identifier number of a token."
          }
        }
      ],
      "ERC721InsufficientApproval(address,uint256)": [
        {
          "details": "Indicates a failure with the `operator`s approval. Used in transfers.",
          "params": {
            "operator": "Address that may be allowed to operate on tokens without being their owner.",
            "tokenId": "Identifier number of a token."
          }
        }
      ],
      "ERC721InvalidApprover(address)": [
        {
          "details": "Indicates a failure with the `approver` of a token to be approved. Used in approvals.",
          "params": {
            "approver": "Address initiating an approval operation."
          }
        }
      ],
      "ERC721InvalidOperator(address)": [
        {
          "details": "Indicates a failure with the `operator` to be approved. Used in approvals.",
          "params": {
            "operator": "Address that may be allowed to operate on tokens without being their owner."
          }
        }
      ],
      "ERC721InvalidOwner(address)": [
        {
          "details": "Indicates that an address can't be an owner. For example, `address(0)` is a forbidden owner in ERC-20. Used in balance queries.",
          "params": {
            "owner": "Address of the current owner of a token."
          }
        }
      ],
      "ERC721InvalidReceiver(address)": [
        {
          "details": "Indicates a failure with the token `receiver`. Used in transfers.",
          "params": {
            "receiver": "Address to which tokens are being transferred."
          }
        }
      ],
      "ERC721InvalidSender(address)": [
        {
          "details": "Indicates a failure with the token `sender`. Used in transfers.",
          "params": {
            "sender": "Address whose tokens are being transferred."
          }
        }
      ],
      "ERC721NonexistentToken(uint256)": [
        {
          "details": "Indicates a `tokenId` whose `owner` is the zero address.",
          "params": {
            "tokenId": "Identifier number of a token."
          }
        }
      ],
      "OwnableInvalidOwner(address)": [
        {
          "details": "The owner is not a valid owner account. (eg. `address(0)`)"
        }
      ],
      "OwnableUnauthorizedAccount(address)": [
        {
          "details": "The caller account is not authorized to perform an operation."
        }
      ]
    },
    "events": {
      "Approval(address,address,uint256)": {
        "details": "Emitted when `owner` enables `approved` to manage the `tokenId` token."
      },
      "ApprovalForAll(address,address,bool)": {
        "details": "Emitted when `owner` enables or disables (`approved`) `operator` to manage all of its assets."
      },
      "BatchMetadataUpdate(uint256,uint256)": {
        "details": "This event emits when the metadata of a range of tokens is changed. So that the third-party platforms such as NFT market could timely update the images and related attributes of the NFTs."
      },
      "MetadataUpdate(uint256)": {
        "details": "This event emits when the metadata of a token is changed. So that the third-party platforms such as NFT market could timely update the images and related attributes of the NFT."
      },
      "Transfer(address,address,uint256)": {
        "details": "Emitted when `tokenId` token is transferred from `from` to `to`."
      }
    },
    "kind": "dev",
    "methods": {
      "approve(address,uint256)": {
        "details": "Gives permission to `to` to transfer `tokenId` token to another account. The approval is cleared when the token is transferred. Only a single account can be approved at a time, so approving the zero address clears previous approvals. Requirements: - The caller must own the token or be an approved operator. - `tokenId` must exist. Emits an {Approval} event."
      },
      "balanceOf(address)": {
        "details": "Returns the number of tokens in ``owner``'s account."
      },
      "constructor": {
        "details": "Constructor",
        "params": {
          "initialOwner": "a ch v s l ch s hu (Owner) ca hp ng",
          "name": "Tn ca b su tp NFT",
          "symbol": "K hiu ca b su tp NFT"
        }
      },
      "getApproved(uint256)": {
        "details": "Returns the account approved for `tokenId` token. Requirements: - `tokenId` must exist."
      },
      "isApprovedForAll(address,address)": {
        "details": "Returns if the `operator` is allowed to manage all of the assets of `owner`. See {setApprovalForAll}"
      },
      "name()": {
        "details": "Returns the token collection name."
      },
      "owner()": {
        "details": "Returns the address of the current owner."
      },
      "ownerOf(uint256)": {
        "details": "Returns the owner of the `tokenId` token. Requirements: - `tokenId` must exist."
      },
      "renounceOwnership()": {
        "details": "Leaves the contract without owner. It will not be possible to call `onlyOwner` functions. Can only be called by the current owner. NOTE: Renouncing ownership will leave the contract without an owner, thereby disabling any functionality that is only available to the owner."
      },
      "safeMint(address,string)": {
        "details": "Hm Mint (ch ch s hu c gi)",
        "params": {
          "to": "a ch v nhn NFT",
          "uri": "ng dn (IPFS) n file metadata (JSON)"
        }
      },
      "safeTransferFrom(address,address,uint256)": {
        "details": "Safely transfers `tokenId` token from `from` to `to`, checking first that contract recipients are aware of the ERC-721 protocol to prevent tokens from being forever locked. Requirements: - `from` cannot be the zero address. - `to` cannot be the zero address. - `tokenId` token must exist and be owned by `from`. - If the caller is not `from`, it must have been allowed to move this token by either {approve} or   {setApprovalForAll}. - If `to` refers to a smart contract, it must implement {IERC721Receiver-onERC721Received}, which is called upon   a safe transfer. Emits a {Transfer} event."
      },
      "safeTransferFrom(address,address,uint256,bytes)": {
        "details": "Safely transfers `tokenId` token from `from` to `to`. Requirements: - `from` cannot be the zero address. - `to` cannot be the zero address. - `tokenId` token must exist and be owned by `from`. - If the caller is not `from`, it must be approved to move this token by either {approve} or {setApprovalForAll}. - If `to` refers to a smart contract, it must implement {IERC721Receiver-onERC721Received}, which is called upon   a safe transfer. Emits a {Transfer} event."
      },
      "setApprovalForAll(address,bool)": {
        "details": "Approve or remove `operator` as an operator for the caller. Operators can call {transferFrom} or {safeTransferFrom} for any token owned by the caller. Requirements: - The `operator` cannot be the address zero. Emits an {ApprovalForAll} event."
      },
      "supportsInterface(bytes4)": {
        "details": "Returns true if this contract implements the interface defined by `interfaceId`. See the corresponding https://eips.ethereum.org/EIPS/eip-165#how-interfaces-are-identified[ERC section] to learn more about how these ids are created. This function call must use less than 30 000 gas."
      },
      "symbol()": {
        "details": "Returns the token collection symbol."
      },
      "tokenURI(uint256)": {
        "details": "Returns the Uniform Resource Identifier (URI) for `tokenId` token."
      },
      "transferFrom(address,address,uint256)": {
        "details": "Transfers `tokenId` token from `from` to `to`. WARNING: Note that the caller is responsible to confirm that the recipient is capable of receiving ERC-721 or else they may be permanently lost. Usage of {safeTransferFrom} prevents loss, though the caller must understand this adds an external call which potentially creates a reentrancy vulnerability. Requirements: - `from` cannot be the zero address. - `to` cannot be the zero address. - `tokenId` token must be owned by `from`. - If the caller is not `from`, it must be approved to move this token by either {approve} or {setApprovalForAll}. Emits a {Transfer} event."
      },
      "transferOwnership(address)": {
        "details": "Transfers ownership of the contract to a new account (`newOwner`). Can only be called by the current owner."
      }
    },
    "version": 1
  },
  "userdoc": {
    "kind": "user",
    "methods": {},
    "version": 1
  }
}